:020000040800F2
:100000000004002061010008A1070008A107000802
:10001000A1070008A1070008A1070008A107000820
:10002000A1070008A1070008A1070008A104000813
:10003000A1070008A1070008A1070008A107000800
:10004000A1070008A1070008A1070008A1070008F0
:10005000A1070008A1070008A1070008A1070008E0
:10006000A1070008A1070008A1070008A1070008D0
:10007000A1070008A1070008A1070008A1070008C0
:10008000A1070008A1070008A1070008A1070008B0
:10009000A1070008A1070008A1070008A1070008A0
:1000A000A107000881030008A1070008F103000868
:1000B00001040008A1070008A1070008A107000823
:1000C000A1070008A1070008A1070008A107000870
:1000D000A1070008A1070008A1070008D105000832
:1000E000A1070008A1070008A1070008A107000850
:1000F000A1070008A1070008A1070008A107000840
:10010000A1070008A1070008A1070008A10700082F
:10011000A1070008A1070008A1070008A10700081F
:10012000A1070008A1070008A1070008A10700080F
:10013000A1070008A1070008A1070008A1070008FF
:10014000A1070008A1070008A1070008A1070008EF
:10015000A1070008A1070008A1070008A1070008DF
:1001600072B6264880F3098825484EF60851CEF22B
:1001700000010860022080F31488BFF36F8F01F044
:100180002FF901F05DF84FF055301E491E4A91429B
:100190003CBF41F8040BFAE71C49184A91423CBFA6
:1001A00041F8040BFAE71A491A4A1B4B9A423EBF20
:1001B00051F8040B42F8040BF8E700201749184ADD
:1001C00091423CBF41F8040BFAE701F0C1F801F09D
:1001D000FFF8144C144DAC4203DA54F8041B884762
:1001E000F9E700F02DFD114C114DAC4203DA54F843
:1001F000041B8847F9E701F0E3B80000000800207D
:10020000000000080000002000040020000400207E
:10021000A41400080008002034080020380800203A
:10022000400A002060010008600100086001000829
:10023000600100082DE9F04FC1F80CD0C3689D465D
:10024000BDE8F08F002383F311882846A0470020E3
:1002500001F036F801F05CF800DFFEE70000000076
:10026000002330B41A461C461946082510F0800FAA
:100270004FEA01114FEA02124FEA04144FEA031346
:100280000CBF41F00F0142F00B0210F4004F0CBF05
:1002900044F00F0443F00B03013D4FEA4000E5D169
:1002A000054D6868044023436B602B6819400A437E
:1002B0002A6030BC704700BF000801400000000009
:1002C00070B4202383F311880D4C4D1E266843190A
:1002D000B018494228440B400840626803449342E6
:1002E00007D89E4205D82360002383F3118870BC91
:1002F00070470020002383F3118870BC704700BF53
:10030000180A0020000000000000000000000000AB
:10031000024AD36843F08003D3607047004800402E
:10032000202383F31188114B5B6813F4006302D11F
:1003300083F31188704780B400AFEFF309834FF067
:100340008071A3F1200243F8041C82F30988084A53
:10035000116892698968926891428CBF054A064A81
:1003600043F8082CBD4680BC704700BF00ED00E09C
:10037000D0080020550200085802000800000000C4
:1003800038B5174DAB691C69DA681440E2B2D24344
:100390001A61A30704D56B681B690BB128469847FF
:1003A000600704D56B689B690BB10D48984721071E
:1003B00004D56B681B6A0BB109489847E20604D55F
:1003C0006B689B6A0BB106489847E30704D56B68D6
:1003D0009B680BB102489847BDE83840FFF7A0BFC3
:1003E00038080020000000000000000000000000AD
:1003F000FFF7C6BF00000000000000000000000082
:100400002DE9F0414FF0804423699B0703D4BDE8F8
:10041000F041FFF785BF00272025276185F311886C
:100420001E4E606AB6F826E0F36980B2A0EB0E01BA
:100430001A8989B2914206F11C081BD319687244CB
:100440004145F284DA68C1F80480F161DF6008BFD9
:10045000E76087F311881869904785F31188606A0F
:10046000B6F826E0F36980B2A0EB0E011A8989B2D2
:100470008A42E3D943450AD07244121A92B2022A40
:100480002CBF8218821C4FF0804392B25A63002323
:1004900083F31188BDE8F041FFF742BFD008002088
:1004A00080B400AFEFF30983203383F3098800237E
:1004B00083F31188BD4680BC704700BF0000000078
:1004C000202383F3118890F82030072B0ED8DFE823
:1004D00003F0280D0D2408040D08426A93680133C7
:1004E000936090E80C001A600268536010B4002218
:1004F0004FF0FF3481680D4B446280F820201B6868
:100500009A688A42FBD25A680021036042601060F8
:10051000586081F3118810BC70470022436A1A604A
:10052000E4E7002383F31188704700BFD008002060
:10053000002210B404468168074B80F820201B6815
:100540009A688A42FBD25A6820462360626014602F
:100550005C6010BC704700BFD008002000000000A5
:10056000F8B5174F57F8044FBC4221D00546002676
:1005700002E02468BC421BD0E3682B43E36015B162
:1005800022691342F5D06068A368416B90F820207F
:100590000B430A2A43630CD00B2AEAD1426A32EA9F
:1005A0000303E6D14662FFF7C3FF2468BC42E3D1F0
:1005B000F8BD426A1342DCD04662FFF7B9FFF4E7A8
:1005C00054080020000000000000000000000000AF
:1005D0002DE9F043694D83B06E6FD6F80C90336807
:1005E000DA059CB200F18280202383F3118814F095
:1005F0002F0F49D04FF00008614F07E0A106736844
:100600001CD43468A4B214F02F0F3DD02307F5D0CA
:1006100014F0080F0CBF00208020E10748BF40F015
:100620002000A20748BF40F04000630748BF40F4E5
:100630008070FFF795FFA1067368E2D56A6995F8A7
:100640007840002A41D02A6A696A8A4246D069699C
:100650002340501C01312862696113702A6AEB69DA
:100660009A4201D3AB692B62EB68BB42C9D01A68CE
:100670001846EA605760C3F82480FFF759FF3468D2
:10068000A4B214F02F0FC1D1002383F3118819F005
:10069000800F01D0220637D4630611D5202383F3BF
:1006A00011886A6CAB6C9A4253D04FF6BF736FF0EF
:1006B000400209EA0303F3600023326083F31188E8
:1006C00003B0BDE8F043FFF72BBE04200193FFF712
:1006D00047FF2A6A696A019B8A42B8D16969002981
:1006E000B5D04FF48060FFF73BFF8AE7202383F308
:1006F00011884FF40070FFF733FF6FF4807200230E
:10070000326083F311886FE7202383F31188AB6C89
:100710006A6C9A4224D0AA6B286C591C0132AA63D5
:10072000A96481421F7801D3EB6BAB642B6B154A34
:10073000934209D04FF0000E1968184629634A60A9
:10074000C3F824E0FFF7F4FE7760002383F31188F9
:10075000A2E7AB6B002BA8D01020FFF701FFA4E7A6
:10076000AA6B002AD7D00820FFF7FAFE4FF63F7396
:1007700009EA030343F04003F360E6E7540800206E
:100780006008002084080020000000000000000035
:10079000FEE700BF000000000000000000000000B5
:1007A000FEE700BF000000000000000000000000A5
:1007B00030B40125074B99691A6881F82000146844
:1007C0001046636082F820501C6030BC9A61FFF7CD
:1007D00031BD00BFD0080020000000000000000074
:1007E0004FF6FF73F0B5994287B055D04C4C4FF09F
:1007F000804E2546074655F81C0FDEF82420A669D2
:100800000229484B38BF0221A8420596049396B2AC
:100810006ED0B4F826C092B2A6EB0C068B19A2EBF0
:100820000C029BB29342028931DB93423BD3934249
:1008300005D900689B1A02899BB29A42F9D34FF6F8
:10084000FF71426801AE0292019016604660ADF8F9
:100850000C300289D31A0381A1843846FFF7A8FF20
:10086000049B83B1E369B34223D00021029A019B28
:100870001360019BAB425A60049104D01A89BDF801
:100880000C100A441A81A369586A07B0F0BD0068C9
:100890009B1A9BB20289CAE7FFF78AFF204CA36923
:1008A000586A07B0F0BD0CEB030189B2CEF83410E2
:1008B000BDE70023019EAE42E661756004932AD035
:1008C0004FF08040426AE18C3389BDF80C5092B2FF
:1008D000511A2B449BB289B28B423381D3D95B1A14
:1008E0009BB2022B2CBFD318931C9BB24363CAE765
:1008F000002002228B19E6849BB201AE019502957D
:10090000ADF80C10E6612662CEF83430CEF8100057
:10091000CEF80C20A1E74FF08042D360B3E700BFD0
:10092000D0080020C1040008000000000000000002
:1009300061B10246074B10B49B694468042083E808
:1009400014002360536010BCFFF74ABF4FF0FF3024
:10095000704700BFD0080020000000000000000029
:100960002DE9F04F9A4683B004460D461646D0F85E
:100970001C80202383F3118800274FF08043BB465F
:100980005B6A0AF1FF3953449BB201931FFA89F95C
:10099000A368FBB16269A368511C013B6161A3605C
:1009A0002B7801351370236962699A4224BFE3688A
:1009B0006361B8F1000F01D02046C0478BF3118866
:1009C000013E07F1010719D0202383F31188A368A2
:1009D000002BDFD14FF6FD72914513D84FF08042C6
:1009E000516A019A511A89B28A4505D32046FFF708
:1009F0009FFF0028CCD0002383F31188384603B032
:100A0000BDE8F08F51462046FFF792FF0028BFD087
:100A1000F1E700BF0000000000000000000000003F
:100A20003030FFF79DBF00BF000000000000000055
:100A300030304FF6FF73FFF793BF00BF0000000098
:100A4000F8B504460F461646202383F3118805E0C7
:100A500031462046FFF76CFF002817DBA568002D04
:100A6000F6D06269A368511C013B6161A3601770F5
:100A7000236962699A4224BFE3686361E3690BB149
:100A800020469847002080F31188F8BD85F311882F
:100A9000F8BD00BF000000000000000000000000E2
:100AA0003030FFF7CDBF00BF0000000000000000A5
:100AB00030304FF6FF72FFF7C3BF00BF00000000E9
:100AC0002DE9F04F9A4683B004460E461546D0F8FD
:100AD0001C80202383F311884FF0804300275B6A3A
:100AE0000AF1FF3953449BB201931FFA89F9A368B5
:100AF00013B3A269A368511C013BA161A3601378E1
:100B000006F1010B33702369A2699A4224BFE3689E
:100B1000A361B8F1000F01D02046C047002383F342
:100B20001188013D07F101071AD0202383F31188B2
:100B3000A3685E46002BDCD14FF6FD72914513D8B9
:100B40004FF08042516A019A511A89B28A4505D301
:100B50002046FFF7EDFE0028C9D0002383F311885B
:100B6000384603B0BDE8F08F51462046FFF7E0FE5F
:100B70000028BCD0F1E700BF00000000000000002A
:100B80000C30FFF79DBF00BF000000000000000018
:100B90000C304FF6FF73FFF793BF00BF000000005B
:100BA00070B5202304460E4683F3118805E03146D4
:100BB0002046FFF7BDFE002818DBA568002DF6D003
:100BC000A169A36820694A1C013B8242A36028BF37
:100BD000E368A2610D7828BFA361E3690BB12046E9
:100BE0009847002383F31188284670BD85F3118848
:100BF00070BD00BF00000000000000000000000009
:100C00000C30FFF7CDBF00BF000000000000000067
:100C10000C304FF6FF71FFF7C3BF00BF00000000AC
:100C200008B50146202383F311880820FFF7D8FD7B
:100C3000002383F3118808BD0000000000000000BD
:100C400000224FF0FF362DE988484FF0883C6FF4C2
:100C50004077C34901204FF010084FF0040B0C6996
:100C6000C04B0E610A61CC68CE60CA60CC699E46FA
:100C700044F08054CC61CC69DFF828A344F00064D0
:100C8000CC61DAF800404FF0804544F48074CAF833
:100C90000040D1F818A0B44C4AF07D0AC1F818A061
:100CA000DFF804A3E660C4F804A0AAF1770AC4F848
:100CB00000A00AF1305A0AF52C1A0AF1440AC4F8C5
:100CC0000C64C4F804A4DFF8E4A2C4F800C4C4F8B7
:100CD0000C78C4F804A8C4F800C804F19144DFF803
:100CE000BCA204F5EF2404F55174CAF80C60CAF8EC
:100CF00004C0CAF800409D4CCAF80C646260CAF88F
:100D000004C4E260CAF800C42070AAF5A05A5A616F
:100D100084F810B0C3F83880DAF804C0DFF890B275
:100D20004CEA080C4EF804BBCAF804C0D1F81CC049
:100D300018724CEA000CC1F81CC0C3F804E0DFF8DC
:100D400074E28B49C4F818E003F1740EC3F840E074
:100D5000DFF864E29A62C3F84CE0DFF860E2DB623D
:100D6000C3F874E0D1F804E01B654EF4006EC1F8DE
:100D700004E04FF6FF7745F6BF5103F10C0CA96272
:100D8000EF62AA61C3F80CC0C3F810C003F1540CA1
:100D9000C3F818C0C3F824C0C3F820C003F1640C22
:100DA000C3F81CC0C3F83CC0C3F848C0C3F844C073
:100DB00003F1300C6F49C3F830C0C3F834C06E4B38
:100DC0006A63EA608E846A60496068618A6028604C
:100DD0004B6480234B638B666FF07F03674ECA843E
:100DE00081F84D204A660A6681F84E00C96309649D
:100DF00086F81C334FF080534FF02009DFF8C0E134
:100E0000C6F88031DFF8BCC1CEF8082033600EEBA5
:100E10000803CEF81030CEF8143001F11C03CEF8E0
:100E20000C20CEF81820CEF800C0CB610B62544DD8
:100E3000544B554FDFF890E101F12C0609600E612B
:100E400085E88040DF68514D27F4E0673F043F0CA0
:100E50003D434F4F4E61DD60FD68DFF870E145F0C6
:100E60008075FD60DEF8005001F1580701F1540C67
:100E700005438E618A6481F84C00CEF80050C1F8B9
:100E800054C083F81F808F6583F82290CF6582F36A
:100E9000118862B689F311884FF0020E3D4B4E69FE
:100EA0003D4FDFF82C81DFF82CC103F1900503F1F1
:100EB0006C09C3F89800C3F8CC0083F8B20083F83B
:100EC000B0E0C3F8A46083F8B120C3F8C420C3F82D
:100ED000A8701A67C3F8C820C3F8A010C3F8AC30D4
:100EE000C3F89C90C3F86C80C3F88CC035618869E6
:100EF000C3F8B420866803F1BC0703F1B80E4D6156
:100F0000C3F8B8E0C3F8BC70C3F8C070002E00F09E
:100F10004A8183F8B02009688A68002AFBD1C3F8A7
:100F200090104868C3F8940005604D6082F3118802
:100F300004201A492023086183F31188184D23786F
:100F40006E68012B6560A66000F03081A06963695E
:100F5000026042638263C263026442623CE000BF9B
:100F6000001002405408002000080140380800200A
:100F7000002004E0D0080020E413000800E100E0B5
:100F8000180A002000ED00E0400A00200003FA05E6
:100F9000F0ED00E040090020FC13000800140140BF
:100FA0000008002000700040BB888888434B888878
:100FB00084140008002C0140110300080048004080
:100FC000200A0020C102000800200020001000E0DC
:100FD00091070008450200082A68E968B3FBF2F3AC
:100FE000EF6A5A1E01F00F03013E012B8262C662B6
:100FF000476003D0022B0CBF032300236A6902F071
:101000000F02012A03D0022A03D143F0200343F048
:101010001003EA6902F00F02012A03D0022A03D169
:1010200043F4007343F480736A6A02F00F02012AEA
:1010300003D0022A03D143F4005343F48053002227
:101040004FF0010C4FF4004E85270226296B0362F6
:1010500021F0FF01C0F814C00261C160C0F844E093
:101060000760E260267082F31188202383F31188E1
:10107000A369DA68D00706D442EA0C02DA601A697A
:1010800002EA0C021A61002585F311884FF4807082
:10109000FFF7E6F84FF40070FFF7E2F84FF4FA605C
:1010A000FFF7BEFD41F64C53A1685F4A03FB01F315
:1010B000A2FB032320215B0B81F31188E268A06966
:1010C00042F00202E260836385F3118881F31188A4
:1010D000A269D368590705D46FF0040143F00403F3
:1010E000D3601161002585F3118841F288363046BE
:1010F000FFF796FDA368DFF8308106FB03F3A8FB3A
:10110000032320275B0B87F31188E268A16942F073
:101110000202E2608B6385F311883046FFF780FDA1
:1011200040F6C413A26803FB02F3A8FB03235B0B86
:1011300087F31188E268A16942F00202E2608B63E2
:1011400085F311883046FFF76BFD87F3118841F274
:101150008732A369A660DA6285F311883046FFF70B
:101160005FFD87F31188A369E1689D63DA6821F068
:10117000020122F00402E160DA6085F3118887F34E
:1011800011882378022B36D000230122E3606360AC
:10119000227083F311880422244B1A614FF4FA70F1
:1011A000FFF73EFDFAE780F82060FEE74FF0700C95
:1011B0004FF000784FF0006E46F668071C4BA069B0
:1011C000996941F400619961D96841F40061D9607D
:1011D000DA60184A184B82F819C3C2F88081C2F845
:1011E000008082F81BC3C2F880E16361C2F800E0AE
:1011F0008761C761F0E64FF000764FF00060A269AA
:101200000C4B0B491560D56015615564C3F88060BF
:1012100083F81953C3F8800083F81B538B6923F4B8
:1012200000638B61B0E700BF5917B7D100140140CC
:101230000010024000E100E000366E0100000000F6
:101240001C4B1A46196841F0010119601368980790
:10125000FCD500201368174903F0F90313605060B0
:101260004B6813F00C0FFBD10B68124A43F4803328
:101270000B6013689903FCD553680E4943F480331F
:101280005360136843F0807313600B689B01FCD5B7
:1012900010224FF48030084B48601A604B68054AB2
:1012A00043F002034B60536803F00C03082BFAD1A0
:1012B000704700BF00100240002002400000000004
:1012C00038B52022034682F31188104A9469A06A37
:1012D00004F128058542636206D00368A362FFF724
:1012E00027F9A06AA842F8D194F8223043B994F8BB
:1012F00021309B0704D1226963691A612269536115
:101300000F20BDE83840FFF753BA00BFD0080020D7
:10131000012130B400250D4A1068946903685A60B1
:1013200080F82010A1681360906184F8205000E0DC
:101330001B689A689142FBD35A6821462360626019
:1013400014605C6030BCFEF775BF00BFD0080020A1
:10135000F0B50026124F134D134C144B144907F1EE
:10136000700E9C4211D91A46043951F8040F42F804
:10137000040B9442F9D8DA43144424F003040434EF
:1013800023449D4203D943F8046B9D42FBD8774523
:1013900004D007F110013AC91037E2E7F0BD00BFF1
:1013A00004140008400A0020400A0020400A0020DF
:1013B000D814000800000000000000000000000039
:1013C000FEE700BF00000000000000000000000079
:1013D000704700BF00000000000000000000000097
:0413E000704700BF93
:1013E4006D61696E00160220040244080C10141882
:1013F4001C2021220000000069646C6500000000CC
:10140400D8140008400A0020400A0020400A0020A6
:10141400D8140008000000000000000000000000D4
:10142400D8140008000000000000000000000000C4
:10143400D8140008000000000000000000000000B4
:10144400D8140008000000000000000000000000A4
:10145400D814000800000000000000000000000094
:10146400D814000800000000000000000000000084
:10147400D814000800000000000000000000000074
:10148400310A0008910B0008B10A0008110C000889
:10149400A10A0008010C0008210A0008810B0008B9
:1014A400102700006400000000000000010000009C
:1014B4000000000001000000000000000000000027
:1014C4000000000000000000000000000000000018
:0414D4000000000014
:04000005080001618D
:00000001FF
