:020000040800F2
:1000000000040020610100089123000891230008EA
:1000100091230008912300089123000891230008F0
:10002000912300089123000891230008D1180008AB
:1000300091230008912300089123000891230008D0
:1000400091230008912300089123000891230008C0
:1000500091230008912300089123000891230008B0
:10006000912300089123000891230008E11C000857
:10007000A11C0008611C0008211C0008E11B0008ED
:10008000A11B0008611B00089123000891230008B0
:100090009123000891230008912300089123000870
:1000A00091230008211A000891230008F10C000890
:1000B000C11A000891230008912300089123000829
:1000C0009123000891230008912300089123000840
:1000D000912300089123000891230008710D000866
:1000E0009123000891230008912300089123000820
:1000F0009123000891230008912300089123000810
:1001000091230008912300089123000891230008FF
:1001100091230008912300089123000891230008EF
:1001200091230008912300089123000891230008DF
:1001300091230008912300089123000891230008CF
:1001400091230008912300089123000891230008BF
:1001500091230008912300089123000891230008AF
:1001600072B6264880F3098825484EF60851CEF22B
:1001700000010860022080F31488BFF36F8F02F043
:1001800057F901F065FB4FF055301E491E4A914268
:100190003CBF41F8040BFAE71C49184A91423CBFA6
:1001A00041F8040BFAE71A491A4A1B4B9A423EBF20
:1001B00051F8040B42F8040BF8E700201749184ADD
:1001C00091423CBF41F8040BFAE702F0E9F802F073
:1001D00027F9144C144DAC4203DA54F8041B884739
:1001E000F9E700F0A5FE114C114DAC4203DA54F8CA
:1001F000041B8847F9E702F00BB900000008002053
:10020000000000080000002000040020000400207E
:10021000882D0008000800201C080020200800206D
:10022000640C002060010008600100086001000803
:10023000600100082DE9F04FC1F80CD0C3689D465D
:10024000BDE8F08F002383F311882846A0470020E3
:1002500002F076F801F064FD00DFFEE781F0004176
:1002600002E000BF83F0004330B54FEA41044FEA9B
:10027000430594EA050F08BF90EA020F1FBF54EA36
:10028000000C55EA020C7FEA645C7FEA655C00F0D2
:10029000E2804FEA5454D4EB5555B8BF6D420CDDA3
:1002A0002C4480EA020281EA030382EA000083EA26
:1002B000010180EA020281EA0303362D88BF30BDC6
:1002C00011F0004F4FEA01314FF4801C4CEA11311C
:1002D00002D0404261EB410113F0004F4FEA03337B
:1002E0004CEA133302D0524263EB430394EA050F06
:1002F00000F0A780A4F10104D5F1200E0DDB02FA75
:100300000EFC22FA05F2801841F1000103FA0EF208
:10031000801843FA05F359410EE0A5F120050EF1CE
:10032000200E012A03FA0EFC28BF4CF0020C43FAFF
:1003300005F3C01851EBE37101F0004507D54FF00C
:10034000000EDCF1000C7EEB00006EEB0101B1F55C
:10035000801F1BD3B1F5001F0CD349085FEA3000A2
:100360004FEA3C0C04F101044FEA445212F5800FAD
:1003700080F09A80BCF1004F08BF5FEA500C50F14A
:10038000000041EB045141EA050130BD5FEA4C0C2D
:10039000404141EB010111F4801FA4F10104E9D1B6
:1003A00091F0000F04BF01460020B1FA81F308BFAD
:1003B0002033A3F10B03B3F120020CDA0C3208DD79
:1003C00002F1140CC2F10C0201FA0CF021FA02F154
:1003D0000CE002F11402D8BFC2F1200C01FA02F1C4
:1003E00020FA0CFCDCBF41EA0C019040E41AA2BFE9
:1003F00001EB0451294330BD6FEA04041F3C1CDAB1
:100400000C340EDC04F11404C4F1200220FA04F0D0
:1004100001FA02F340EA030021FA04F345EA03017A
:1004200030BDC4F10C04C4F1200220FA02F001FA3C
:1004300004F340EA0300294630BD21FA04F02946BE
:1004400030BD94F0000F83F4801306BF81F4801157
:100450000134013D4EE77FEA645C18BF7FEA655CCA
:1004600029D094EA050F08BF90EA020F05D054EA9C
:10047000000C04BF1946104630BD91EA030F1EBFA1
:100480000021002030BD5FEA545C05D140004941A5
:1004900028BF41F0004130BD14F580043CBF01F598
:1004A000801130BD01F0004545F0FE4141F470017E
:1004B0004FF0000030BD7FEA645C1ABF1946104659
:1004C0007FEA655C1CBF0B46024650EA013406BF5A
:1004D00052EA033591EA030F41F4002130BD00BF19
:1004E00090F0000F04BF0021704730B54FF48064D6
:1004F00004F132044FF000054FF0000150E700BF57
:1005000090F0000F04BF0021704730B54FF48064B5
:1005100004F1320410F0004548BF40424FF00001A2
:100520003EE700BF42004FEAE2014FEA31014FEAE5
:1005300002701FBF12F07F4393F07F4F81F0605134
:10054000704792F0000F14BF93F07F4F704730B5A3
:100550004FF4607401F0004521F0004120E700BF36
:1005600050EA010208BF704730B54FF000050AE0BD
:1005700050EA010208BF704730B511F0004502D5BE
:10058000404261EB41014FF4806404F132045FEAC0
:10059000915C3FF4DCAE4FF003025FEADC0C18BF65
:1005A00003325FEADC0C18BF033202EBDC02C2F15B
:1005B000200300FA03FC20FA02F001FA03FE40EAED
:1005C0000E0021FA02F11444C1E600BF70B54FF0ED
:1005D000FF0C4CF4E06C1CEA11541DBF1CEA1355CF
:1005E00094EA0C0F95EA0C0F00F0DEF82C4481EA37
:1005F000030621EA4C5123EA4C5350EA013518BF57
:1006000052EA033541F4801143F4801338D0A0FB43
:1006100002CE4FF00005E1FB02E506F00042E0FBF0
:1006200003E54FF00006E1FB03569CF0000F18BFF6
:100630004EF0010EA4F1FF04B6F5007F64F540749E
:1006400004D25FEA4E0E6D4146EB060642EAC62131
:1006500041EA55514FEAC52040EA5E504FEACE2E9E
:10066000B4F1FD0C88BFBCF5E06F1ED8BEF1004FA1
:1006700008BF5FEA500E50F1000041EB045170BD1D
:1006800006F0004646EA010140EA020081EA030161
:10069000B4EB5C04C2BFD4EB0C0541EA045170BD5D
:1006A00041F480114FF0000E013C00F3AB8014F1D7
:1006B000360FDEBF002001F0004170BDC4F1000420
:1006C000203C35DA0C341BDC04F11404C4F12005A1
:1006D00000FA05F320FA04F001FA05F240EA0200FC
:1006E00001F0004221F0004110EBD37021FA04F632
:1006F00042EB06015EEA430E08BF20EAD37070BDEC
:10070000C4F10C04C4F1200500FA04F320FA05F04A
:1007100001FA04F240EA020001F0004110EBD3704C
:1007200041F100015EEA430E08BF20EAD37070BDBC
:10073000C4F1200500FA05F24EEA020E20FA04F395
:1007400001FA05F243EA020321FA04F001F0004144
:1007500021FA04F220EA020000EBD3705EEA430EB5
:1007600008BF20EAD37070BD94F0000F0FD101F0E4
:100770000046400041EB010111F4801F08BF013C1D
:10078000F7D041EA060195F0000F18BF704703F05B
:100790000046520043EB030313F4801F08BF013DE2
:1007A000F7D043EA0603704794EA0C0F0CEA13559E
:1007B00018BF95EA0C0F0CD050EA410618BF52EA58
:1007C0004306D1D181EA030101F000414FF000005E
:1007D00070BD50EA410606BF1046194652EA43066C
:1007E00019D094EA0C0F02D150EA013613D195EAE0
:1007F0000C0F05D152EA03361CBF104619460AD128
:1008000081EA030101F0004141F0FE4141F4700131
:100810004FF0000070BD41F0FE4141F4780170BD21
:1008200070B54FF0FF0C4CF4E06C1CEA11541DBF86
:100830001CEA135594EA0C0F95EA0C0F00F0A7F888
:10084000A4EB050481EA030E52EA03354FEA0131B5
:1008500000F088804FEA03334FF0805545EA1313C8
:1008600043EA12634FEA022245EA111545EA106590
:100870004FEA00260EF000419D4208BF964244F127
:10088000FD0404F5407402D25B084FEA3202B61A46
:1008900065EB03055B084FEA32024FF480104FF41A
:1008A000002CB6EB020E75EB030E22BFB61A75468E
:1008B00040EA0C005B084FEA3202B6EB020E75EB21
:1008C000030E22BFB61A754640EA5C005B084FEA89
:1008D0003202B6EB020E75EB030E22BFB61A754656
:1008E00040EA9C005B084FEA3202B6EB020E75EB61
:1008F000030E22BFB61A754640EADC0055EA060E22
:1009000018D04FEA051545EA16754FEA06164FEA64
:10091000C30343EA52734FEAC2025FEA1C1CC0D110
:1009200011F4801F0BD141EA00014FF000004FF09D
:10093000004CB6E711F4801F04BF01430020B4F15E
:10094000FD0C88BFBCF5E06F3FF6AFAEB5EB030C16
:1009500004BFB6EB020C5FEA500C50F1000041EB13
:10096000045170BD0EF0004E4EEA113114EB5C04E0
:10097000C2BFD4EB0C0541EA045170BD41F48011B3
:100980004FF0000E013C90E645EA060E8DE60CEABB
:10099000135594EA0C0F08BF95EA0C0F3FF43BAFD8
:1009A00094EA0C0F0AD150EA01347FF434AF95EA8F
:1009B0000C0F7FF425AF104619462CE795EA0C0F73
:1009C00006D152EA03353FF4FDAE1046194622E740
:1009D00050EA410618BF52EA43067FF4C5AE50EA1A
:1009E00041047FF40DAF52EA43057FF4EBAE12E70A
:1009F0004FEA410212F5001215D211D56FF4787347
:100A0000B3EB625212D94FEAC12343F0004343EAE9
:100A1000505311F0004F23FA02F018BF40427047C4
:100A20004FF00000704750EA013005D111F000404E
:100A300008BF6FF0004070474FF00000704700BFE4
:100A40004A0011D212F5001211D20DD56FF478734D
:100A5000B3EB62520ED44FEAC12343F0004343EAA2
:100A6000505323FA02F070474FF00000704750EAED
:100A7000013002D14FF0FF3070474FF00000704757
:100A80004FEA4102B2F1E04324BFB3F5001CDCF1B0
:100A9000FE5C0DD901F0004C4FEAC0024CEA5070E8
:100AA000B2F1004F40EB830008BF20F00100704717
:100AB00011F0804F21D113F13872BCBF01F000401A
:100AC000704741F480114FEA5252C2F11802C2F14C
:100AD000200C10FA0CF320FA02F018BF40F00100CD
:100AE0004FEAC1234FEAD32303FA0CFC40EA0C007F
:100AF00023FA02F34FEA4303CCE77FEA625307D1BC
:100B000050EA01331EBF4FF0FE4040F440007047F2
:100B100001F0004040F0FE4040F40000704700BF8C
:100B20004FF0FF3C06E000BF4FF0010C02E000BFB9
:100B30004FF0010C4DF804CD4FEA40024FEA41035B
:100B40007FEA226C18BF7FEA236C11D001B052EA11
:100B5000530C18BF90EA010F58BFB2EB030088BFD7
:100B6000C81738BF6FEAE17018BF40F00100704746
:100B70007FEA226C02D15FEA402C05D17FEA236C28
:100B8000E4D15FEA412CE1D05DF8040B704700BF6F
:100B9000844608466146FFE70FB5FFF7C9FF002806
:100BA00048BF10F1000F0FBD4DF808EDFFF7F4FF3F
:100BB0000CBF012000205DF808FB00BF4DF808EDD8
:100BC000FFF7EAFF34BF012000205DF808FB00BFFB
:100BD0004DF808EDFFF7E0FF94BF012000205DF81D
:100BE00008FB00BF4DF808EDFFF7D2FF94BF0120CE
:100BF00000205DF808FB00BF4DF808EDFFF7C8FFC7
:100C000034BF012000205DF808FB00BF4FEA40021E
:100C1000B2F1FE4F0FD34FF09E03B3EB12620DD92A
:100C20004FEA002343F0004310F0004F23FA02F094
:100C300018BF404270474FF00000704712F1610F3B
:100C400001D1420205D110F0004008BF6FF0004012
:100C500070474FF0000070470000000000000000E7
:100C6000024AD36843F08003D360704700480040D5
:100C700003691B6801334F2B2DD830B418491C2B46
:100C80000A786FEA020014D80125164B00F007001D
:100C90001C7805FA00F024EA0000072A187013D027
:100CA000172A02D11878104B187001320A7030BC24
:100CB000704701240B4B00F007001D7804FA00F088
:100CC0002843072A1870EBD11878084B01321870A6
:100CD0000A7030BC70470022014B1A70704700BF89
:100CE000A8080020400B00206C08002020080020ED
:100CF00000F096BE000000000000000000000000B0
:100D00004FF0040880B5C1464FF47A77104B114A72
:100D10009B69114E114D124C9A61C5F810903078B4
:100D200007FB00F000F2E730A4FB0030C0F38F10A7
:100D300001F04EFAC5F81480307807FB00F000F29D
:100D4000E730A4FB0030C0F38F1001F041FAE4E774
:100D5000F40B0020B82B0008F80A00200014014012
:100D6000D34D6210000000000000000000000000F1
:100D70002DE9F043694D83B06E6FD6F80C9033685F
:100D8000DA059CB200F18280202383F3118814F0ED
:100D90002F0F49D04FF00008614F07E0A10673689C
:100DA0001CD43468A4B214F02F0F3DD02307F5D023
:100DB00014F0080F0CBF00208020E10748BF40F06E
:100DC0002000A20748BF40F04000630748BF40F43E
:100DD000807001F065FBA1067368E2D56A6995F839
:100DE0007840002A41D02A6A696A8A4246D06969F5
:100DF0002340501C01312862696113702A6AEB6933
:100E00009A4201D3AB692B62EB68BB42C9D01A6826
:100E10001846EA605760C3F8248001F0E9F93468A5
:100E2000A4B214F02F0FC1D1002383F3118819F05D
:100E3000800F01D0220637D4630611D5202383F317
:100E400011886A6CAB6C9A4253D04FF6BF736FF047
:100E5000400209EA0303F3600023326083F3118840
:100E600003B0BDE8F04300F0ABBD0420019301F0F6
:100E700017FB2A6A696A019B8A42B8D1696900290D
:100E8000B5D04FF4806001F00BFB8AE7202383F399
:100E900011884FF4007001F003FB6FF4807200239F
:100EA000326083F311886FE7202383F31188AB6CE2
:100EB0006A6C9A4224D0AA6B286C591C0132AA632E
:100EC000A96481421F7801D3EB6BAB642B6B154A8D
:100ED000934209D04FF0000E1968184629634A6002
:100EE000C3F824E001F084F97760002383F31188CC
:100EF000A2E7AB6B002BA8D0102001F0D1FAA4E739
:100F0000AA6B002AD7D0082001F0CAFA4FF63F7327
:100F100009EA030343F04003F360E6E7780B00209F
:100F2000840B0020A80B002000000000000000003F
:100F300000204FF0FF3401460246134B2DE9804854
:100F40001D691C611861DD68DC60D860DC690F4ECA
:100F500044F08054DC61DC690D4D44F00064DC61D8
:100F600033680C4C43F4807333600B4B85B01860CE
:100F70000A4B226043F831200131072905F114059D
:100F80000ED055F8144CF3E70010024000700040FA
:100F9000D82B000808000240FC0A0020700800203E
:100FA0004FF0FF304FF088316FF440790126CF4B7E
:100FB00042F28A5E09271D46DFF88CC3CC4CCCF880
:100FC0000400D4F81880ACF5784C48F07D08C4F8DB
:100FD0001880DFF87883CCF80C00CCF80480A8F5F2
:100FE0006458A8F13408CCF80080DFF86483CCF8AA
:100FF0000C04CCF80484CCF800140CF1914CDFF80C
:1010000054830CF5E82C0CF2433CC8F80C90C8F85B
:1010100004C0C8F80010DFF840C3DFF84083CCF804
:101020000C00CCF80410CCF80080DFF83483CCF846
:101030000C04CCF80414CCF8001488F80060A16902
:10104000C8F8042041F40071C8F80820C8F80C2042
:10105000C8F81020C8F81420C8F82020A161A549BC
:10106000C8F830E0C8F82C1008F11801C8F81810BA
:10107000C8F81C10C8F828305A609E609F60AB68A2
:101080001807FCD40522994BAA609D6815F0040549
:10109000FBD1994C012220464FF0100C41F20A0A74
:1010A000DFF84C929D60D9F81870944E27F40077C1
:1010B000C9F8187040F8046B04F174076060904E32
:1010C00004F10C002764E06020618E4F04F15400AD
:1010D0008D4BE664A0618D4E6062206204F1640075
:1010E0006767E061E063A064606407F5644704F14A
:1010F000300020636063F76003F10C00A7F5305700
:1011000065615D609D60D8601A70C4F838C0A562E2
:10111000E4622465227232707560186178685D61DE
:1011200040EA0C007860D9F81C00C3F828A01043EE
:10113000C9F81C0041F2180007F54057DF61744FF1
:10114000D8621F6214375F62724B72485B684FF05F
:10115000804143F4006343604FF6FF7E45F6BF5382
:10116000DFF800A24FF0800BAAF824E08B62C1F8F0
:101170002CE08D61CAF804A04D63CAF80850CD6018
:10118000AAF826504D604A610A604FF08051624FC4
:101190006248DFF8D4E1624B87F81CB34360C7F8BC
:1011A00080113960C0F800E04FF6FF0E0AF11C0113
:1011B0005C4BCAF81C10CAF820105B485B49CAF89F
:1011C00000A01860C8689D6000EA0E0E5848DD60F7
:1011D0004EEA0000DFF894E1C860DEF80C009D6183
:1011E00040F08070CEF80C00DFF884E1CAF834B02B
:1011F000DEF800008AF84D501043CAF868B0CAF80B
:101200006450CAF860508AF84E20CAF83CA0CAF868
:1012100040A0CAF848508AF84C20CEF800000AF1E5
:10122000540E81F81FC0CAF854E04FF0200E414818
:101230009C44CAF8440081F822E00AF12C00C3F86B
:1012400010C0C3F814C00AF15803CAF81000CAF855
:101250001400CAF81800CAF85830CAF85C3085F390
:10126000118862B6202383F311880220324B334960
:10127000C3F89820C3F8CC2083F8B22003F16C02A5
:10128000DAF814C0C3F89C20DFF8E8E02C4AD966ED
:1012900003F19001C3F8A4C083F8B000C3F8A8E03C
:1012A0001D6703F1BC0E83F8B150C3F8C850C3F8F2
:1012B000C450C3F8A0A0C3F8AC30C3F88C20CCF85D
:1012C000101003F1B80C0846C3F8B8C0C3F8BCE06E
:1012D000C3F8C0E00292CAF8141001F0B1F885F327
:1012E0001188E823174A1370202345E000240140A9
:1012F00000100240C02B0008780B0020A82C00082A
:10130000610C0008004800403C0800202408002030
:10131000D42B0008002004E000E100E0D00A002007
:1013200000200020D80A0020F118000800ED00E09D
:101330000003FA05742C0008F8090020B119000810
:1013400045020008F80A002000000240B88488889E
:101350008888B3B400100140001401404488888894
:10136000440B0020F40B0020680C0020F0ED00E09E
:10137000001000E08C2C000883F31188237A029A75
:10138000012B0CD1C021D9F81C3043F48023C9F8BB
:101390001C3087F82713C7F884B1C7F804B0D021F0
:1013A000636F4FF0400C012742F22C1E002599601C
:1013B0000220FF21C3F810C05F61C3F80CE01D607C
:1013C000D3F800E05B6884F87810207285F3118808
:1013D000202484F311888121C34BDFF84CE3C3F848
:1013E000FC2003F1DC02C3F80C21DFF840C3DAF87B
:1013F0001420C3F8DCE003F5807E83F82001C3F8F5
:101400001421C3F80811C3F83C11C3F8E05083F865
:101410002151C3F83851C3F8345183F82271C3F80D
:1014200010A1C3F81C31C3F818C103F59471C2F8B8
:1014300010E003F596727046C3F82811C3F82C210A
:10144000C3F83021CAF814E000F0FAFF85F31188E0
:101450000521384601F09CF884F3118898F80020A3
:10146000C8F80450BA4200F08F810223002588F8A2
:10147000003085F31188202787F311884FF0030B84
:101480009A4BC8F80C70C8F80830994B88F800B02F
:10149000C8F8103001F03CF8DAF81830954A584690
:1014A0005A62C8F8143000F05BFC85F311884FF4E1
:1014B0007A70029700F08CFE8C4BDFF8749203F187
:1014C0003E04029981F31188884BC8F80C10C8F8C3
:1014D0000830874B88F800B0C8F8103001F018F8D1
:1014E000DAF81830834A03205A62C8F8143000F042
:1014F00037FC85F3118800207F4A32F8023F1844F8
:10150000A24280B2F9D1400900EB4000FEF7F8FF9B
:1015100073A3D3E90023FFF759F80022774BFEF7B6
:10152000A3FEFFF78DFA83B21F46754B06211D708F
:10153000744B4FF480701D70734B1D70734B1D7096
:1015400001F026F84FF08072714B12201A6103935C
:1015500000F03EFE4FF48070039B0321186101F000
:1015600017F8029B83F311883378C6F80490012B97
:1015700000F0E080F368B2681D605D639D635D62AA
:10158000D9F804104FF6FF70B2FBF1F2D9F8181039
:101590001D6121F0FF01D96099F81410013A9A6297
:1015A000D862002940F0838040F2012254219A61E0
:1015B00099F800209960002A40F0DD8031221A62FB
:1015C00003F138023433326173610223337085F3DF
:1015D0001188029880F311880521F3685A6942F056
:1015E00001025A611D61196086F800B085F3118807
:1015F00080F31188F268D36813F0FF000FD171688F
:101600001061087D002863D18868002800F0B98047
:1016100043F00603096909B143F00103D36085F380
:1016200011884FF42F7000F0D3FD029880F31188D9
:101630000221F3681D60DA68317022F0FF02DA607F
:1016400085F3118880F3118833788B4215D14FF0E0
:1016500000704FF00061F2682E4B1560D560156187
:101660002D4AC3F8800083F81953C3F8801083F81B
:101670001B53936923F400639361012375603370F6
:1016800085F31188214B25491A781F4BC2EB421E66
:10169000C2EB8E0E1B784FEA4E0E0097204FAEF134
:1016A0000C0E87F800E01F4800F0AAFF09E74FF48E
:1016B000817264219A6199F800209960002A5DD1B5
:1016C00013221A6203F134023833326173617CE70A
:1016D000886800289CD143F004039BE7AFF30080A7
:1016E0003333333333331340B0080020000B002072
:1016F0004C2C0008580B0020FE0A002000003E4041
:10170000A8080020400B0020200800206C080020C2
:101710000008014000E100E0001002409C2C00089D
:10172000F80A0020780B0020010D0008942C000816
:101730000008002070204FF0007E4FF000613B4A0F
:10174000936943F400639361D2F80CC0384B4CF4B6
:10175000006CC2F80CC0D560364A83F81903B26039
:10176000C3F880E1C3F800E083F81B03C3F88011DD
:101770001960F36804E713221A6221E731221A6222
:10178000A0E743F0020345E72B49D8F82C300C685A
:10179000597C8A40224246D1284D2948284F00EBE7
:1017A000C10047F831506106C0F8048004D11F48D9
:1017B000416941F0010141610E2500275868016827
:1017C00021F00F01016093F810E0196805FA0EF599
:1017D0004D60996807600C4215D101256027997CFE
:1017E0004B099B0001F1604E03F1604301F01F01C2
:1017F00003F5614305FA01F10EF5614E8EF80073B1
:10180000C3F8801119600C4B22431A6000210D4B64
:10181000064C8360A369D8F8282043F40073A361C1
:101820005160916021E65868F0E700BF0010024067
:1018300000E100E000366E01FC0A002021220008D1
:10184000700800204C24014000000000000000004F
:101850001C4B1A46196841F001011960136898077A
:10186000FCD500201368174903F0F903136050609A
:101870004B6813F00C0FFBD10B68124A43F4803312
:101880000B6013689903FCD553680E4943F4803309
:101890005360136843F0807313600B689B01FCD5A1
:1018A00010224FF48030084B48601A604B68054A9C
:1018B00043F002034B60536803F00C03082BFAD18A
:1018C000704700BF001002400020024000000000EE
:1018D00080B400AFEFF30983203383F3098800233A
:1018E00083F31188BD4680BC704700BF0000000034
:1018F00070B4202383F311880D4C4D1E26684319C4
:10190000B018494228440B4008406268034493429F
:1019100007D89E4205D82360002383F3118870BC4A
:1019200070470020002383F3118870BC704700BF0C
:10193000D00A0020000000000000000000000000AD
:10194000202383F3118890F82030072B0ED8DFE88E
:1019500003F0280D0D2408040D08426A9368013332
:10196000936090E80C001A600268536010B4002283
:101970004FF0FF3481680D4B446280F820201B68D3
:101980009A688A42FBD25A68002103604260106064
:10199000586081F3118810BC70470022436A1A60B6
:1019A000E4E7002383F31188704700BFF40B0020A5
:1019B000FEE700BF00000000000000000000000083
:1019C000202383F31188114B5B6813F4006302D169
:1019D00083F31188704780B400AFEFF309834FF0B1
:1019E0008071A3F1200243F8041C82F30988084A9D
:1019F000116892698968926891428CBF054A064ACB
:101A000043F8082CBD4680BC704700BF00ED00E0E5
:101A1000F40B0020550200085802000800000000E6
:101A200038B5244DEB6869681C69DA681440E2B285
:101A3000D2431A610B7D93B960072ED52B78042B06
:101A400027D0A10712D4E40705D56B6819481B6994
:101A5000984703232B70BDE83840FFF7B1BFA207BA
:101A60000BD52B78042B04D06307ECD504232B7003
:101A7000E9E78B68D3B1284698476307E3D52B780D
:101A8000042BF3D16968CB68002BEFD00948984745
:101A9000ECE78B683BB128469847A107D3D52B7854
:101AA000042BE3D1EEE7A007EDD4CCE76207EAD43C
:101AB000C9E700BF2408002000000000000000006B
:101AC0002DE9F0414FF0804423699B0703D4BDE822
:101AD000F041FFF775BF00272025276185F31188A6
:101AE0001E4E606AB6F826E0F36980B2A0EB0E01E4
:101AF0001A8989B2914206F11C081BD319687244F5
:101B00004145F284DA68C1F80480F161DF6008BF02
:101B1000E76087F311881869904785F31188606A38
:101B2000B6F826E0F36980B2A0EB0E011A8989B2FB
:101B30008A42E3D943450AD07244121A92B2022A69
:101B40002CBF8218821C4FF0804392B25A6300234C
:101B500083F31188BDE8F041FFF732BFF40B00209A
:101B60000B4B0C4A19681268090E01F00E01114264
:101B70000BD0094810B5046B0A065A600CB1406BD3
:101B8000A047BDE81040FFF71BBFFFF719BF00BF1C
:101B900000000240800002407008002000000000A9
:101BA0000B4B0C4A19681268090D01F00E01114225
:101BB0000BD0094810B5846A0A055A600CB1C06A96
:101BC000A047BDE81040FFF7FBBEFFF7F9BE00BF1E
:101BD000000002406C00024070080020000000007D
:101BE0000B4B0C4A19681268090C01F00E011142E6
:101BF0000BD0094810B5046A0A045A600CB1406A57
:101C0000A047BDE81040FFF7DBBEFFF7D9BE00BF1D
:101C10000000024058000240700800200000000050
:101C20000B4B0C4A19681268090B01F00E011142A6
:101C30000BD0094810B584690A035A600CB1C06919
:101C4000A047BDE81040FFF7BBBEFFF7B9BE00BF1D
:101C50000000024044000240700800200000000024
:101C60000B4B0C4A19681268090A01F00E01114267
:101C70000BD0094810B504690A025A600CB14069DA
:101C8000A047BDE81040FFF79BBEFFF799BE00BF1D
:101C900000000240300002407008002000000000F8
:101CA0000B4B0C4A19681268090901F00E01114228
:101CB0000BD0094810B584680A015A600CB1C0689D
:101CC000A047BDE81040FFF77BBEFFF779BE00BF1D
:101CD000000002401C0002407008002000000000CC
:101CE00008B5094B094A1968126801F00E01114242
:101CF00005D0074A596013680BB150689847BDE892
:101D00000840FFF75DBE00BF00000240080002402F
:101D1000700800200000000000000000000000002B
:101D2000012130B400250D4A1068946903685A6097
:101D300080F82010A1681360906184F8205000E0C2
:101D40001B689A689142FBD35A68214623606260FF
:101D500014605C6030BCFEF76DBA00BFF40B00206D
:101D600030B40125074B99691A6881F8200014687E
:101D70001046636082F820501C6030BC9A61FEF708
:101D800059BA00BFF40B0020000000000000000062
:101D90004FF6FF73F0B5994287B055D04C4C4FF0D9
:101DA000804E2546074655F81C0FDEF82420A6690C
:101DB0000229484B38BF0221A8420596049396B2E7
:101DC0006ED0B4F826C092B2A6EB0C068B19A2EB2B
:101DD0000C029BB29342028931DB93423BD3934284
:101DE00005D900689B1A02899BB29A42F9D34FF633
:101DF000FF71426801AE0292019016604660ADF834
:101E00000C300289D31A0381A1843846FFF7A8FF5A
:101E1000049B83B1E369B34223D00021029A019B62
:101E20001360019BAB425A60049104D01A89BDF83B
:101E30000C100A441A81A369586A07B0F0BD006803
:101E40009B1A9BB20289CAE7FFF78AFF204CA3695D
:101E5000586A07B0F0BD0CEB030189B2CEF834101C
:101E6000BDE70023019EAE42E661756004932AD06F
:101E70004FF08040426AE18C3389BDF80C5092B239
:101E8000511A2B449BB289B28B423381D3D95B1A4E
:101E90009BB2022B2CBFD318931C9BB24363CAE79F
:101EA000002002228B19E6849BB201AE01950295B7
:101EB000ADF80C10E6612662CEF83430CEF8100092
:101EC000CEF80C20A1E74FF08042D360B3E700BF0B
:101ED000F40B002041190008000000000000000081
:101EE00061B10246074B10B49B694468042083E843
:101EF00014002360536010BCFFF74ABF4FF0FF305F
:101F0000704700BFF40B002000000000000000003C
:101F10002DE9F04F9A4683B004460D461646D0F898
:101F20001C80202383F3118800274FF08043BB4699
:101F30005B6A0AF1FF3953449BB201931FFA89F996
:101F4000A368FBB16269A368511C013B6161A36096
:101F50002B7801351370236962699A4224BFE368C4
:101F60006361B8F1000F01D02046C0478BF31188A0
:101F7000013E07F1010719D0202383F31188A368DC
:101F8000002BDFD14FF6FD72914513D84FF0804200
:101F9000516A019A511A89B28A4505D32046FFF742
:101FA0009FFF0028CCD0002383F31188384603B06C
:101FB000BDE8F08F51462046FFF792FF0028BFD0C2
:101FC000F1E700BF0000000000000000000000007A
:101FD0003030FFF79DBF00BF000000000000000090
:101FE00030304FF6FF73FFF793BF00BF00000000D3
:101FF000F8B504460F461646202383F3118805E002
:1020000031462046FFF76CFF002817DBA568002D3E
:10201000F6D06269A368511C013B6161A36017702F
:10202000236962699A4224BFE3686361E3690BB183
:1020300020469847002080F31188F8BD85F3118869
:10204000F8BD00BF0000000000000000000000001C
:102050003030FFF7CDBF00BF0000000000000000DF
:1020600030304FF6FF72FFF7C3BF00BF0000000023
:102070002DE9F04F9A4683B004460E461546D0F837
:102080001C80202383F311884FF0804300275B6A74
:102090000AF1FF3953449BB201931FFA89F9A368EF
:1020A00013B3A269A368511C013BA161A36013781B
:1020B00006F1010B33702369A2699A4224BFE368D9
:1020C000A361B8F1000F01D02046C047002383F37D
:1020D0001188013D07F101071AD0202383F31188ED
:1020E000A3685E46002BDCD14FF6FD72914513D8F4
:1020F0004FF08042516A019A511A89B28A4505D33C
:102100002046FFF7EDFE0028C9D0002383F3118895
:10211000384603B0BDE8F08F51462046FFF7E0FE99
:102120000028BCD0F1E700BF000000000000000064
:102130000C30FFF79DBF00BF000000000000000052
:102140000C304FF6FF73FFF793BF00BF0000000095
:1021500070B5202304460E4683F3118805E031460E
:102160002046FFF7BDFE002818DBA568002DF6D03D
:10217000A169A36820694A1C013B8242A36028BF71
:10218000E368A2610D7828BFA361E3690BB1204623
:102190009847002383F31188284670BD85F3118882
:1021A00070BD00BF00000000000000000000000043
:1021B0000C30FFF7CDBF00BF0000000000000000A2
:1021C0000C304FF6FF71FFF7C3BF00BF00000000E7
:1021D00008B50146202383F311880820FFF7D8FDB6
:1021E000002383F3118808BD0000000000000000F8
:1021F000002210B404468168074B80F820201B6839
:102200009A688A42FBD25A68204623606260146052
:102210005C6010BC704700BFF40B002000000000A1
:102220002DE9F0410D0704462DD50E230021C26A89
:1022300005695668AF68356825F00F053560167C6E
:102240001568826AB3406B609160002F54D00523FB
:102250000370B8472378052B04BF022323700023A3
:102260002361202383F3118863693BB100214FF080
:10227000FF32616118465A62FFF7BAFF002383F309
:102280001188BDE8F0818A0729D503691A78002AE8
:1022900036D10E21C56A5F686E68336823F00F037C
:1022A00033602B7C2E68856A01FA03F37360AA60A1
:1022B000002F35D00423C26803708168B8472378A3
:1022C000042B2DD0202383F311886369002BD5D0F4
:1022D0000022184662615A62FFF78AFFCEE74B0779
:1022E00008D503695B682BB1BDE8F041C26881681D
:1022F00052081847BDE8F081022307610370B0E778
:102300005D68002DF6D0C268012A0ED95E88520899
:102310008368510006FB01312B46BDE8F0411847A8
:102320000222002322702361CCE72B46BDE8F04156
:102330008168184700000000000000000000000055
:1023400038B52022034682F31188104A9469A06AA6
:1023500004F128058542636206D00368A362FFF793
:1023600047FFA06AA842F8D194F8223043B994F804
:1023700021309B0704D1226963691A612269536184
:102380000F20BDE83840FFF7EBBC00BFF40B002086
:10239000FEE700BF00000000000000000000000099
:1023A000F0B50026124F134D134C144B144907F18E
:1023B000700E9C4211D91A46043951F8040F42F8A4
:1023C000040B9442F9D8DA43144424F0030404348F
:1023D00023449D4203D943F8046B9D42FBD87745C3
:1023E00004D007F110013AC91037E2E7F0BD00BF91
:1023F000C82C0008640C0020640C0020640C002031
:10240000A42D0008000000000000000000000000F3
:10241000FEE700BF00000000000000000000000018
:10242000704700BF00000000000000000000000036
:10243000704700BF00000000000000000000000026
:1024400070B40026144B46629D6981680446A868F2
:1024500081420CD884F820601B689A689142FBD9AD
:102460005A682360626014605C6070BC70471A46F2
:1024700085F82060126891688842FBD9012650686F
:102480002A6068600560556084F82060294620460F
:102490009C6170BCFDF7CEBEF40B00200000000074
:1024A000F8B5174F57F8044FBC4221D00546002617
:1024B00002E02468BC421BD0E3682B43E36015B103
:1024C00022691342F5D06068A368416B90F8202020
:1024D0000B430A2A43630CD00B2AEAD1426A32EA40
:1024E0000303E6D14662FFF783FE2468BC42E3D1D2
:1024F000F8BD426A1342DCD04662FFF779FEF4E78A
:10250000780B002000000000000000000000000028
:102510001D4AF0B41369156B197800292BD1D168C5
:102520005C88D06A01FB04F140689668DC68C6608C
:102530004160056019690568926A11F4841F45F0CD
:102540000105056044F4807414BF41F4807041F4C7
:1025500081705F699E69DD69546040F001001C6A0A
:102560005B6A01439160D7601661D562146353635F
:10257000F0BC90607047D168012994BF45F02005F8
:1025800045F02405CCE700BF440B0020000000000C
:102590000329F0B42BD0042904BF164B5861002343
:1025A00008261A461D461C46134F795C07064FEA5B
:1025B00004144FEA02124FEA05154FEA031354BF01
:1025C00044F00F040A43070454BF45F00F050B43C2
:1025D000013E4FEA4000E9D1064841680D402B43D7
:1025E000436003681C4022430260F0BC7047014B0B
:1025F0001861D4E700080140482D000800000000E1
:102600000EB42DE9F04F92B01CAB0B93984600230B
:102610008346794E0193751E6B7800242D2B0ABFDB
:1026200001230023AE1C32780393302A03BF727853
:10263000013630272027711C07E098F8003008F198
:10264000040811F8012B03EB4004A2F13003DBB2C4
:10265000092B0D4604EB8400F3D92A2AEDD02E2A4B
:102660004FF0000345D002F0DF014C2950D0A2F119
:102670004400342800F20382DFE810F0D1010102A7
:10268000010201020102D101010201020102010263
:1026900001024202010201020102010201021202D0
:1026A00001020102450201020102010201020102CE
:1026B000010201020102010201026701D1010102CE
:1026C000C00001020102D101010201020102010266
:1026D000010242020102010201028F000102120204
:1026E00001020102450298F8001008F1040801EB0C
:1026F000400315F8012B03EB8300A2F13001C9B2AE
:102700000929F4D92A2AEED002F0DF014C29AED1F2
:1027100095F80090B9F1000F03D04A46013595F8BD
:102720000090A2F14401342900F2AB81DFE811F0FE
:102730007901A901A901A901A9017901A901A901A9
:10274000A901A901A901EE01A901A901A901A901F4
:10275000A901F101A901A901F401A901A901A90196
:10276000A901A901A901A901A901A901A9010F01B3
:102770007901A9016800A901A9017901A901A901AB
:10278000A901A901A901EE01A901A901A901370027
:10279000A901F101A901A901F40195F80090D8F867
:1027A000006008F10408002E00F0F681002B00F014
:1027B000B6813278002A00F0B881591E002B00F053
:1027C000B481324601E0013903D412F8013F002BF5
:1027D000F9D1A2EB060C0CF1FF33B4EB0C0402931D
:1027E0004FF0200740F1C380029B002BA8BF0024BC
:1027F00080F2DC80019CFAE09D2C000895F80090A6
:1028000008F1070828F00708D8E900010293FEF74D
:1028100037F900210890FEF7D1F908F10808029B6A
:10282000002840F0AC810DF1300ACDF808A00898DE
:102830000693FDF777FE069BCDE90401013B082BCB
:1028400000F28C81C34A52F823603046FDF748FEFF
:10285000C14BCDE90601A3FB0636F3081E460993DA
:102860000898FEF7D3F9029B024603F10B0CE646EB
:10287000B94BA3FB0213DB08194603EB8303A2EB5E
:1028800043033033DBB20EF8013D0A460029EFD195
:102890000893029BACEB0E0C71461A4603EB0C0E30
:1028A000089B01E011F8013F02F8013B7245F9D1A4
:1028B0002E2302990CF1FF3C614413700291FDF745
:1028C0001FFE02460B46DDE90401FDF7CBFCDDE906
:1028D0000623FDF77BFEFEF78BF8099B0299002B80
:1028E00008BF0646334601F10D0E2E4601F1020CDB
:1028F00072461D4600E00A46974BA3FB0013DB0817
:102900001946954BA3FB053501EB8103A0EB43036F
:102910003033DBB2ED08084602F8013C02F1FF312A
:10292000E9D1AEEB010E35466046714401E012F884
:10293000013B914200F8013BF9D1E644AEEB0A0CB1
:102940000CF1FF33564602930DE095F800900022FB
:102950004FF0010C2027D8F8003012AE029206F892
:10296000183D08F10408B4EB0C043FF53DAF039BA0
:10297000002B40F09180C4F1000A002C00F08B8005
:1029800031782D2900F0D680DBF8003039469B687D
:10299000584698471AF1010AF6D1019B2344019346
:1029A000029B002BA8BF5446FFF624AFDDF808A019
:1029B000DBF800300AF1FF3A9B6816F8011B584615
:1029C0009847BAF1FF3FF3D1019B029A01331A44B1
:1029D0000192002C3FF40EAF2646DBF8003039465A
:1029E0009B6858469847013EF7D1019B1C444946D5
:1029F000641B2B196E1C61B125294AD03546DBF8C2
:102A0000003058469B68984731782B196E1C002976
:102A1000F2D1184612B0BDE8F04F03B0704795F8F8
:102A20000090D8F8001008F104080029C0F29E8038
:102A30000DF1300A524602F10B0E7046464BA3FBD5
:102A40000163DB081E4603EB8303A1EB4303303332
:102A5000DBB200F8013D3146002EEFD1AEEB0001B4
:102A6000114401E010F8013F02F8013B8A42F9D11C
:102A7000A2EB0A0C0CF1FF335646029373E795F86C
:102A80000090002312AE02934FF0010C06F8182DAF
:102A900069E70193C0E55446029B002B86DA98E76C
:102AA0004FF00A0C95F800900DF13B06D8F8002085
:102AB000314608F1040800E00146B2FBFCFE0CFBC5
:102AC0001E2202F13003392BC8BF02F137037246D0
:102AD000DBB201F8013C481E002AEDD10DF1300AAD
:102AE000A6EB000CD646604401E011F8013B884299
:102AF0000EF8013BF9D10CF1FF335646029332E751
:102B00004FF0080CCEE74FF0100CCBE74FF0080C5D
:102B1000CAE74FF00A0CC7E74FF0100CC4E7337850
:102B200047F6FE71002B7FF44CAE4FF0FF332027A9
:102B300002931CE7302F7FF427AFDBF800205846C4
:102B400092689047019B013601330193029B013B40
:102B5000029319E7642D0008CDCCCCCC144E12A3FF
:102B6000D3E900230996CDE9062379E62D234942CE
:102B70008DF830300DF131020DF1300A5BE72D2276
:102B800008998DF8302001F100410DF131020891D2
:102B900002920DF1300A4AE60BB1064E0DE647F6F9
:102BA000FE71044E0DE600BF0000000065CDCD4172
:082BB00000E1F5055C2D0008B1
:102BB800626C696E6B65720000000240080002409A
:102BC800010000000000000000000B0000000240AF
:102BD8001C000240020000000000000004010C007C
:102BE8000000024030000240040000000000000025
:102BF80008020D00000002404400024008000000E6
:102C0800000000000C030E000000024058000240C3
:102C1800100000000000000010040F000000024037
:102C28006C000240200000000000000014051000A5
:102C38000000024080000240400000000000000048
:102C4800180611000000010000000000000000004C
:102C58000000000000000E0000000000010000005D
:102C68000000000000000000000000006D61696EB7
:102C780000160220040244080C1014181C202122FB
:102C88000000000069646C65000000006E6F6E61F2
:102C98006D65000025642C25642C25640A0000005D
:102CA800E11F00084121000861200008C121000837
:102CB80051200008B1210008D11F00083121000867
:102CC800A42D0008640C0020640C0020640C002073
:102CD800A42D000800000000000000000000000013
:102CE800A42D000800000000000000000000000003
:102CF800A42D0008000000000000000000000000F3
:102D0800A42D0008000000000000000000000000E2
:102D1800A42D0008000000000000000000000000D2
:102D2800A42D0008000000000000000000000000C2
:102D3800A42D0008000000000000000000000000B2
:102D48000402040808000307080808080808080817
:102D58000B0F0000286E756C6C2900000A0000003B
:102D680064000000E803000010270000A0860100AE
:102D780040420F008096980000E1F50500CA9A3B92
:102D88000000000040420F00710C00080000000025
:0C2D98000000000000000000000000002F
:04000005080001618D
:00000001FF
