:020000040800F2
:1000000000040020610100083111000831110008CE
:1000100031110008311100083111000831110008B8
:100020003111000831110008311100084110000899
:100030003111000831110008311100083111000898
:100040003111000831110008311100083111000888
:100050003111000831110008311100083111000878
:100060003111000831110008311100080110000899
:10007000C10F0008810F0008410F0008010F0008A0
:10008000C10E0008810E000831110008311100086E
:100090003111000831110008311100083111000838
:1000A00031110008310D000831110008D10D000890
:1000B000E10D00083111000831110008311100086C
:1000C0003111000831110008311100083111000808
:1000D000311100083111000831110008011C00081D
:1000E00031110008311100083111000831110008E8
:1000F00031110008311100083111000831110008D8
:1001000031110008311100083111000831110008C7
:1001100031110008311100083111000831110008B7
:1001200031110008311100083111000831110008A7
:100130003111000831110008311100083111000897
:100140003111000831110008311100083111000887
:100150003111000831110008311100083111000877
:1001600072B6264880F3098825484EF60851CEF22B
:1001700000010860022080F31488BFF36F8F01F044
:100180008FFE01F0B5FC4FF055301E491E4A9142DA
:100190003CBF41F8040BFAE71C49184A91423CBFA6
:1001A00041F8040BFAE71A491A4A1B4B9A423EBF20
:1001B00051F8040B42F8040BF8E700201749184ADD
:1001C00091423CBF41F8040BFAE701F021FE01F037
:1001D0005FFE144C144DAC4203DA54F8041B8847FC
:1001E000F9E701F09DFE114C114DAC4203DA54F8D1
:1001F000041B8847F9E701F043BE00000008002017
:10020000000000080000002000040020000400207E
:1002100034290008000800201C08002020080020C5
:10022000E80B002060010008600100086001000880
:10023000600100082DE9F04FC1F80CD0C3689D465D
:10024000BDE8F08F002383F311882846A0470020E3
:1002500001F0B6FD01F09CFC00DFFEE781F00041FB
:1002600002E000BF83F0004330B54FEA41044FEA9B
:10027000430594EA050F08BF90EA020F1FBF54EA36
:10028000000C55EA020C7FEA645C7FEA655C00F0D2
:10029000E2804FEA5454D4EB5555B8BF6D420CDDA3
:1002A0002C4480EA020281EA030382EA000083EA26
:1002B000010180EA020281EA0303362D88BF30BDC6
:1002C00011F0004F4FEA01314FF4801C4CEA11311C
:1002D00002D0404261EB410113F0004F4FEA03337B
:1002E0004CEA133302D0524263EB430394EA050F06
:1002F00000F0A780A4F10104D5F1200E0DDB02FA75
:100300000EFC22FA05F2801841F1000103FA0EF208
:10031000801843FA05F359410EE0A5F120050EF1CE
:10032000200E012A03FA0EFC28BF4CF0020C43FAFF
:1003300005F3C01851EBE37101F0004507D54FF00C
:10034000000EDCF1000C7EEB00006EEB0101B1F55C
:10035000801F1BD3B1F5001F0CD349085FEA3000A2
:100360004FEA3C0C04F101044FEA445212F5800FAD
:1003700080F09A80BCF1004F08BF5FEA500C50F14A
:10038000000041EB045141EA050130BD5FEA4C0C2D
:10039000404141EB010111F4801FA4F10104E9D1B6
:1003A00091F0000F04BF01460020B1FA81F308BFAD
:1003B0002033A3F10B03B3F120020CDA0C3208DD79
:1003C00002F1140CC2F10C0201FA0CF021FA02F154
:1003D0000CE002F11402D8BFC2F1200C01FA02F1C4
:1003E00020FA0CFCDCBF41EA0C019040E41AA2BFE9
:1003F00001EB0451294330BD6FEA04041F3C1CDAB1
:100400000C340EDC04F11404C4F1200220FA04F0D0
:1004100001FA02F340EA030021FA04F345EA03017A
:1004200030BDC4F10C04C4F1200220FA02F001FA3C
:1004300004F340EA0300294630BD21FA04F02946BE
:1004400030BD94F0000F83F4801306BF81F4801157
:100450000134013D4EE77FEA645C18BF7FEA655CCA
:1004600029D094EA050F08BF90EA020F05D054EA9C
:10047000000C04BF1946104630BD91EA030F1EBFA1
:100480000021002030BD5FEA545C05D140004941A5
:1004900028BF41F0004130BD14F580043CBF01F598
:1004A000801130BD01F0004545F0FE4141F470017E
:1004B0004FF0000030BD7FEA645C1ABF1946104659
:1004C0007FEA655C1CBF0B46024650EA013406BF5A
:1004D00052EA033591EA030F41F4002130BD00BF19
:1004E00090F0000F04BF0021704730B54FF48064D6
:1004F00004F132044FF000054FF0000150E700BF57
:1005000090F0000F04BF0021704730B54FF48064B5
:1005100004F1320410F0004548BF40424FF00001A2
:100520003EE700BF42004FEAE2014FEA31014FEAE5
:1005300002701FBF12F07F4393F07F4F81F0605134
:10054000704792F0000F14BF93F07F4F704730B5A3
:100550004FF4607401F0004521F0004120E700BF36
:1005600050EA010208BF704730B54FF000050AE0BD
:1005700050EA010208BF704730B511F0004502D5BE
:10058000404261EB41014FF4806404F132045FEAC0
:10059000915C3FF4DCAE4FF003025FEADC0C18BF65
:1005A00003325FEADC0C18BF033202EBDC02C2F15B
:1005B000200300FA03FC20FA02F001FA03FE40EAED
:1005C0000E0021FA02F11444C1E600BF70B54FF0ED
:1005D000FF0C4CF4E06C1CEA11541DBF1CEA1355CF
:1005E00094EA0C0F95EA0C0F00F0DEF82C4481EA37
:1005F000030621EA4C5123EA4C5350EA013518BF57
:1006000052EA033541F4801143F4801338D0A0FB43
:1006100002CE4FF00005E1FB02E506F00042E0FBF0
:1006200003E54FF00006E1FB03569CF0000F18BFF6
:100630004EF0010EA4F1FF04B6F5007F64F540749E
:1006400004D25FEA4E0E6D4146EB060642EAC62131
:1006500041EA55514FEAC52040EA5E504FEACE2E9E
:10066000B4F1FD0C88BFBCF5E06F1ED8BEF1004FA1
:1006700008BF5FEA500E50F1000041EB045170BD1D
:1006800006F0004646EA010140EA020081EA030161
:10069000B4EB5C04C2BFD4EB0C0541EA045170BD5D
:1006A00041F480114FF0000E013C00F3AB8014F1D7
:1006B000360FDEBF002001F0004170BDC4F1000420
:1006C000203C35DA0C341BDC04F11404C4F12005A1
:1006D00000FA05F320FA04F001FA05F240EA0200FC
:1006E00001F0004221F0004110EBD37021FA04F632
:1006F00042EB06015EEA430E08BF20EAD37070BDEC
:10070000C4F10C04C4F1200500FA04F320FA05F04A
:1007100001FA04F240EA020001F0004110EBD3704C
:1007200041F100015EEA430E08BF20EAD37070BDBC
:10073000C4F1200500FA05F24EEA020E20FA04F395
:1007400001FA05F243EA020321FA04F001F0004144
:1007500021FA04F220EA020000EBD3705EEA430EB5
:1007600008BF20EAD37070BD94F0000F0FD101F0E4
:100770000046400041EB010111F4801F08BF013C1D
:10078000F7D041EA060195F0000F18BF704703F05B
:100790000046520043EB030313F4801F08BF013DE2
:1007A000F7D043EA0603704794EA0C0F0CEA13559E
:1007B00018BF95EA0C0F0CD050EA410618BF52EA58
:1007C0004306D1D181EA030101F000414FF000005E
:1007D00070BD50EA410606BF1046194652EA43066C
:1007E00019D094EA0C0F02D150EA013613D195EAE0
:1007F0000C0F05D152EA03361CBF104619460AD128
:1008000081EA030101F0004141F0FE4141F4700131
:100810004FF0000070BD41F0FE4141F4780170BD21
:1008200070B54FF0FF0C4CF4E06C1CEA11541DBF86
:100830001CEA135594EA0C0F95EA0C0F00F0A7F888
:10084000A4EB050481EA030E52EA03354FEA0131B5
:1008500000F088804FEA03334FF0805545EA1313C8
:1008600043EA12634FEA022245EA111545EA106590
:100870004FEA00260EF000419D4208BF964244F127
:10088000FD0404F5407402D25B084FEA3202B61A46
:1008900065EB03055B084FEA32024FF480104FF41A
:1008A000002CB6EB020E75EB030E22BFB61A75468E
:1008B00040EA0C005B084FEA3202B6EB020E75EB21
:1008C000030E22BFB61A754640EA5C005B084FEA89
:1008D0003202B6EB020E75EB030E22BFB61A754656
:1008E00040EA9C005B084FEA3202B6EB020E75EB61
:1008F000030E22BFB61A754640EADC0055EA060E22
:1009000018D04FEA051545EA16754FEA06164FEA64
:10091000C30343EA52734FEAC2025FEA1C1CC0D110
:1009200011F4801F0BD141EA00014FF000004FF09D
:10093000004CB6E711F4801F04BF01430020B4F15E
:10094000FD0C88BFBCF5E06F3FF6AFAEB5EB030C16
:1009500004BFB6EB020C5FEA500C50F1000041EB13
:10096000045170BD0EF0004E4EEA113114EB5C04E0
:10097000C2BFD4EB0C0541EA045170BD41F48011B3
:100980004FF0000E013C90E645EA060E8DE60CEABB
:10099000135594EA0C0F08BF95EA0C0F3FF43BAFD8
:1009A00094EA0C0F0AD150EA01347FF434AF95EA8F
:1009B0000C0F7FF425AF104619462CE795EA0C0F73
:1009C00006D152EA03353FF4FDAE1046194622E740
:1009D00050EA410618BF52EA43067FF4C5AE50EA1A
:1009E00041047FF40DAF52EA43057FF4EBAE12E70A
:1009F0004FEA410212F5001215D211D56FF4787347
:100A0000B3EB625212D94FEAC12343F0004343EAE9
:100A1000505311F0004F23FA02F018BF40427047C4
:100A20004FF00000704750EA013005D111F000404E
:100A300008BF6FF0004070474FF00000704700BFE4
:100A40004FEA4102B2F1E04324BFB3F5001CDCF1F0
:100A5000FE5C0DD901F0004C4FEAC0024CEA507028
:100A6000B2F1004F40EB830008BF20F00100704757
:100A700011F0804F21D113F13872BCBF01F000405A
:100A8000704741F480114FEA5252C2F11802C2F18C
:100A9000200C10FA0CF320FA02F018BF40F001000D
:100AA0004FEAC1234FEAD32303FA0CFC40EA0C00BF
:100AB00023FA02F34FEA4303CCE77FEA625307D1FC
:100AC00050EA01331EBF4FF0FE4040F44000704733
:100AD00001F0004040F0FE4040F40000704700BFCD
:100AE0004FF0FF3C06E000BF4FF0010C02E000BFFA
:100AF0004FF0010C4DF804CD4FEA40024FEA41039C
:100B00007FEA226C18BF7FEA236C11D001B052EA51
:100B1000530C18BF90EA010F58BFB2EB030088BF17
:100B2000C81738BF6FEAE17018BF40F00100704786
:100B30007FEA226C02D15FEA402C05D17FEA236C68
:100B4000E4D15FEA412CE1D05DF8040B704700BFAF
:100B5000844608466146FFE70FB5FFF7C9FF002846
:100B600048BF10F1000F0FBD4DF808EDFFF7F4FF7F
:100B70000CBF012000205DF808FB00BF4DF808ED18
:100B8000FFF7EAFF34BF012000205DF808FB00BF3B
:100B90004DF808EDFFF7E0FF94BF012000205DF85D
:100BA00008FB00BF4DF808EDFFF7D2FF94BF01200E
:100BB00000205DF808FB00BF4DF808EDFFF7C8FF07
:100BC00034BF012000205DF808FB00BF4FEA40025F
:100BD000B2F1FE4F0FD34FF09E03B3EB12620DD96B
:100BE0004FEA002343F0004310F0004F23FA02F0D5
:100BF00018BF404270474FF00000704712F1610F7C
:100C000001D1420205D110F0004008BF6FF0004052
:100C100070474FF000007047000000000000000027
:100C200003691B6801334F2B2FD830B41C491C2B90
:100C30000A786FEA020016D801251A4B00F0070067
:100C40001C7805FA00F024EA0000072A187015D075
:100C5000172A1ED0272A02D11878134B1870013298
:100C60000A7030BC704701240E4B00F007001D785D
:100C700004FA00F02843072A1870E9D118780B4BC2
:100C8000013218700A7030BC70470022044B1A7091
:100C900070471878064B013218700A7030BC7047E4
:100CA000A8080020F90A00202008002021080020C0
:100CB0006C080020000000000000000000000000A0
:100CC000024AD36843F08003D36070470048004075
:100CD000202383F31188114B5B6813F4006302D166
:100CE00083F31188704780B400AFEFF309834FF0AE
:100CF0008071A3F1200243F8041C82F30988084A9A
:100D0000116892698968926891428CBF054A064AC7
:100D100043F8082CBD4680BC704700BF00ED00E0E2
:100D2000780B00205502000858020008000000005F
:100D300038B5244DEB6869681C69DA681440E2B282
:100D4000D2431A610B7D93B960072ED52B78042B03
:100D500027D0A10712D4E40705D56B6819481B6991
:100D6000984703232B70BDE83840FFF7B1BFA207B7
:100D70000BD52B78042B04D06307ECD504232B7000
:100D8000E9E78B68D3B1284698476307E3D52B780A
:100D9000042BF3D16968CB68002BEFD00948984742
:100DA000ECE78B683BB128469847A107D3D52B7851
:100DB000042BE3D1EEE7A007EDD4CCE76207EAD439
:100DC000C9E700BF24080020000000000000000068
:100DD000FFF7AEBF000000000000000000000000B0
:100DE0002DE9F0414FF0804423699B0703D4BDE80F
:100DF000F041FFF76DBF00272025276185F311889B
:100E00001E4E606AB6F826E0F36980B2A0EB0E01D0
:100E10001A8989B2914206F11C081BD319687244E1
:100E20004145F284DA68C1F80480F161DF6008BFEF
:100E3000E76087F311881869904785F31188606A25
:100E4000B6F826E0F36980B2A0EB0E011A8989B2E8
:100E50008A42E3D943450AD07244121A92B2022A56
:100E60002CBF8218821C4FF0804392B25A63002339
:100E700083F31188BDE8F041FFF72ABF780B00200B
:100E80000B4B0C4A19681268090E01F00E01114251
:100E90000BD0094810B5046B0A065A600CB1406BC0
:100EA000A047BDE81040FFF713BFFFF711BF00BF19
:100EB0000000024080000240700800200000000096
:100EC0000B4B0C4A19681268090D01F00E01114212
:100ED0000BD0094810B5846A0A055A600CB1C06A83
:100EE000A047BDE81040FFF7F3BEFFF7F1BE00BF1B
:100EF000000002406C00024070080020000000006A
:100F00000B4B0C4A19681268090C01F00E011142D2
:100F10000BD0094810B5046A0A045A600CB1406A43
:100F2000A047BDE81040FFF7D3BEFFF7D1BE00BF1A
:100F3000000002405800024070080020000000003D
:100F40000B4B0C4A19681268090B01F00E01114293
:100F50000BD0094810B584690A035A600CB1C06906
:100F6000A047BDE81040FFF7B3BEFFF7B1BE00BF1A
:100F70000000024044000240700800200000000011
:100F80000B4B0C4A19681268090A01F00E01114254
:100F90000BD0094810B504690A025A600CB14069C7
:100FA000A047BDE81040FFF793BEFFF791BE00BF1A
:100FB00000000240300002407008002000000000E5
:100FC0000B4B0C4A19681268090901F00E01114215
:100FD0000BD0094810B584680A015A600CB1C0688A
:100FE000A047BDE81040FFF773BEFFF771BE00BF1A
:100FF000000002401C0002407008002000000000B9
:1010000008B5094B094A1968126801F00E0111422E
:1010100005D0074A596013680BB150689847BDE87E
:101020000840FFF755BE00BF000002400800024024
:101030007008002000000000000000000000000018
:1010400080B400AFEFF30983203383F309880023D2
:1010500083F31188BD4680BC704700BF00000000CC
:1010600070B4202383F311880D4C4D1E266843195C
:10107000B018494228440B40084062680344934238
:1010800007D89E4205D82360002383F3118870BCE3
:1010900070470020002383F3118870BC704700BFA5
:1010A000D00A002000000000000000000000000046
:1010B000202383F3118890F82030072B0ED8DFE827
:1010C00003F0280D0D2408040D08426A93680133CB
:1010D000936090E80C001A600268536010B400221C
:1010E0004FF0FF3481680D4B446280F820201B686C
:1010F0009A688A42FBD25A680021036042601060FD
:10110000586081F3118810BC70470022436A1A604E
:10111000E4E7002383F31188704700BF780B0020B9
:10112000FEE700BF0000000000000000000000001B
:10113000FEE700BF0000000000000000000000000B
:1011400030B40125074B99691A6881F820001468AA
:101150001046636082F820501C6030BC9A61FFF733
:1011600069B800BF780B00200000000000000000FC
:101170004FF6FF73F0B5994287B055D04C4C4FF005
:10118000804E2546074655F81C0FDEF82420A66938
:101190000229484B38BF0221A8420596049396B213
:1011A0006ED0B4F826C092B2A6EB0C068B19A2EB57
:1011B0000C029BB29342028931DB93423BD39342B0
:1011C00005D900689B1A02899BB29A42F9D34FF65F
:1011D000FF71426801AE0292019016604660ADF860
:1011E0000C300289D31A0381A1843846FFF7A8FF87
:1011F000049B83B1E369B34223D00021029A019B8F
:101200001360019BAB425A60049104D01A89BDF867
:101210000C100A441A81A369586A07B0F0BD00682F
:101220009B1A9BB20289CAE7FFF78AFF204CA36989
:10123000586A07B0F0BD0CEB030189B2CEF8341048
:10124000BDE70023019EAE42E661756004932AD09B
:101250004FF08040426AE18C3389BDF80C5092B265
:10126000511A2B449BB289B28B423381D3D95B1A7A
:101270009BB2022B2CBFD318931C9BB24363CAE7CB
:10128000002002228B19E6849BB201AE01950295E3
:10129000ADF80C10E6612662CEF83430CEF81000BE
:1012A000CEF80C20A1E74FF08042D360B3E700BF37
:1012B000780B0020B11000080000000000000000C2
:1012C00061B10246074B10B49B694468042083E86F
:1012D00014002360536010BCFFF74ABF4FF0FF308B
:1012E000704700BF780B00200000000000000000E5
:1012F0002DE9F04F9A4683B004460D461646D0F8C5
:101300001C80202383F3118800274FF08043BB46C5
:101310005B6A0AF1FF3953449BB201931FFA89F9C2
:10132000A368FBB16269A368511C013B6161A360C2
:101330002B7801351370236962699A4224BFE368F0
:101340006361B8F1000F01D02046C0478BF31188CC
:10135000013E07F1010719D0202383F31188A36808
:10136000002BDFD14FF6FD72914513D84FF080422C
:10137000516A019A511A89B28A4505D32046FFF76E
:101380009FFF0028CCD0002383F31188384603B098
:10139000BDE8F08F51462046FFF792FF0028BFD0EE
:1013A000F1E700BF000000000000000000000000A6
:1013B0003030FFF79DBF00BF0000000000000000BC
:1013C00030304FF6FF73FFF793BF00BF00000000FF
:1013D000F8B504460F461646202383F3118805E02E
:1013E00031462046FFF76CFF002817DBA568002D6B
:1013F000F6D06269A368511C013B6161A36017705C
:10140000236962699A4224BFE3686361E3690BB1AF
:1014100020469847002080F31188F8BD85F3118895
:10142000F8BD00BF00000000000000000000000048
:101430003030FFF7CDBF00BF00000000000000000B
:1014400030304FF6FF72FFF7C3BF00BF000000004F
:101450002DE9F04F9A4683B004460E461546D0F863
:101460001C80202383F311884FF0804300275B6AA0
:101470000AF1FF3953449BB201931FFA89F9A3681B
:1014800013B3A269A368511C013BA161A360137847
:1014900006F1010B33702369A2699A4224BFE36805
:1014A000A361B8F1000F01D02046C047002383F3A9
:1014B0001188013D07F101071AD0202383F3118819
:1014C000A3685E46002BDCD14FF6FD72914513D820
:1014D0004FF08042516A019A511A89B28A4505D368
:1014E0002046FFF7EDFE0028C9D0002383F31188C2
:1014F000384603B0BDE8F08F51462046FFF7E0FEC6
:101500000028BCD0F1E700BF000000000000000090
:101510000C30FFF79DBF00BF00000000000000007E
:101520000C304FF6FF73FFF793BF00BF00000000C1
:1015300070B5202304460E4683F3118805E031463A
:101540002046FFF7BDFE002818DBA568002DF6D069
:10155000A169A36820694A1C013B8242A36028BF9D
:10156000E368A2610D7828BFA361E3690BB120464F
:101570009847002383F31188284670BD85F31188AE
:1015800070BD00BF0000000000000000000000006F
:101590000C30FFF7CDBF00BF0000000000000000CE
:1015A0000C304FF6FF71FFF7C3BF00BF0000000013
:1015B0000EB42DE9F04F90B019AB53F8048B002214
:1015C00083469A460092099398F8001008F10103A7
:1015D00081B1252914D09846009CDBF8002058469C
:1015E000926801340094904798F8001008F10103C4
:1015F0000029EED1009810B0BDE8F04F03B070475D
:1016000098F8012000242D2A03BF98F8022008F141
:1016100002034FF001094FF00009302A03BF5A7846
:10162000013330262026591C07E09AF800300AF1D1
:10163000040A11F8012B03EB4004A2F13003DBB2E2
:10164000092B884604EB8400F3D92A2AEDD02E2AF0
:101650004FF0000745D002F0DF034C2B50D0A2F131
:101660004401342900F2F381DFE811F00001F101B7
:10167000F101F101F1010001F101F101F101F101CB
:10168000F101FD00F101F101F101F101F1018C0025
:10169000F101F1014901F101F101F101F101F10162
:1016A000F101F101F101F101F101E5010001F101A7
:1016B0004C01F101F1010001F101F101F101F10130
:1016C000F101FD00F101F101F1012B01F1018C00AB
:1016D000F101F10149019AF800300AF1040A03EB23
:1016E000410718F8012B07EB8701A2F13003DBB2A9
:1016F000092BF4D92A2AEED002F0DF034C2BAED10D
:1017000098F8003013B11A4608F10108A2F1440319
:10171000342B00F29C81DFE813F0A9009A019A01B2
:101720009A019A01A9009A019A019A019A019A01D3
:10173000A6009A019A019A019A019A0135009A012C
:101740009A01F2009A019A019A019A019A019A016A
:101750009A019A019A019A018E01A9009A01F50055
:101760009A019A01A9009A019A019A019A019A0193
:10177000A6009A019A019A01D4009A0135009A01B3
:101780009A01F2004FF00A0E0DF13307DAF800204B
:1017900039460AF1040A00E00146B2FBFEF50EFBF1
:1017A000152202F13003392BC8BF02F13703DBB237
:1017B00001F8013C481E2A46002DEDD10AADA7EBE9
:1017C000000CAE46604401E011F8013B88420EF87F
:1017D000013BF9D10CF1FF37B4EB0C043ED4B9F165
:1017E000000F40F03C81C4F10009002C00F036816C
:1017F00029782D2900F03A81DBF8003031469B68CA
:101800005846984719F10109F6D1009B002F23444F
:101810000093A8BF4C46FFF6D7AEB946DBF80030C0
:1018200009F1FF399B6815F8011B58469847B9F133
:10183000FF3FF3D1009B01333B440093002C3FF466
:10184000C3AE2546DBF8003031469B6858469847C2
:10185000013DF7D1009B23440093B5E6002FA8BFBC
:101860000024DADAB0E64FF0080E8DE7DAF800105F
:101870000AF1040A0029C0F20F810AAD2A4602F1DA
:101880000B0E7046964BA3FB0173DB081F4603EB60
:101890008303A1EB43033033DBB200F8013D39464B
:1018A000002FEFD1AEEB0001114401E010F8013F31
:1018B00002F8013B8A42F9D1A2EB050C0CF1FF378B
:1018C0008AE7DAF800500AF1040A002D00F0F880E7
:1018D0002B78002F40F0C780002B00F0F68047F6F1
:1018E000FE732A4601E0013B03D412F8011F0029D0
:1018F000F9D1A2EB050C0CF1FF3720266CE74FF075
:10190000100E41E70AF1070A2AF0070ADAE9000196
:10191000FFF796F800210AF1080A0690FFF72EF962
:10192000002840F0C1800AAD01950698FEF7FAFD47
:10193000013F082FCDE9020100F2A680694B53F860
:1019400027703846FEF7CCFD654BCDE90401A3FBBB
:101950000737FB081F4607930698FFF737F9019BE7
:10196000024603F10B0CE6465D4BA3FB0213DB08BA
:10197000194603EB8303A2EB43033033DBB20EF8CB
:10198000013D0A460029EFD10693019BACEB0E0CFA
:1019900071461A4603EB0C0E069B01E011F8013F5D
:1019A00002F8013B7245F9D12E2301990CF1FF3C5D
:1019B000614413700191FEF7A3FD02460B46DDE979
:1019C0000201FEF74FFCDDE90423FEF7FFFDFFF700
:1019D0000FF80199079B01F10D0E002B08BF074678
:1019E00001F1020C724600E00A463D4BA3FB0013D6
:1019F000DB0819463A4BA3FB073701EB8103A0EB49
:101A000043033033DBB2FF08084602F8013C02F121
:101A1000FF31E9D1AEEB010E6046714401E012F8EE
:101A2000013B914200F8013BF9D1E644AEEB050CD5
:101A30000CF1FF37D0E6DAF8003010AD002705F8DA
:101A4000183D0AF1040A4FF0010C2026C4E610AD3F
:101A500000274FF0010C05F8182DBDE64C46002F6D
:101A6000BFF6DBAEEAE683B37B1E3AE7302E7FF4A7
:101A7000C3AEDBF8003058469B689847009B0135A1
:101A800001330093013FB7E6174F13A3D3E90023B7
:101A90000797CDE904235FE72D2349428DF82830CD
:101AA0000DF129020AADEAE62D23069A8DF82830B9
:101AB00002F100420DF12903069201930AAD34E7C9
:101AC0000FB947F6FF77094DCEE74FF0FF372026D5
:101AD00085E600BFAFF300800000000065CDCD417A
:101AE000CDCCCCCC4427000800E1F5053C2700080C
:101AF0001C4B1A46196841F00101196013689807D8
:101B0000FCD500201368174903F0F90313605060F7
:101B10004B6813F00C0FFBD10B68124A43F480336F
:101B20000B6013689903FCD553680E4943F4803366
:101B30005360136843F0807313600B689B01FCD5FE
:101B400010224FF48030084B48601A604B68054AF9
:101B500043F002034B60536803F00C03082BFAD1E7
:101B6000704700BF0010024000200240000000004B
:101B700008B50146202383F311880820FFF7F8FAFF
:101B8000002383F3118808BD00000000000000005E
:101B9000012130B400250D4A1068946903685A6029
:101BA00080F82010A1681360906184F8205000E054
:101BB0001B689A689142FBD35A6821462360626091
:101BC00014605C6030BCFEF735BB00BF780B0020B2
:101BD000002210B404468168074B80F820201B685F
:101BE0009A688A42FBD25A68204623606260146079
:101BF0005C6010BC704700BF780B00200000000044
:101C00002DE9F043694D83B06E6FD6F80C903368C0
:101C1000DA059CB200F18280202383F3118814F04E
:101C20002F0F49D04FF00008614F07E0A1067368FD
:101C30001CD43468A4B214F02F0F3DD02307F5D084
:101C400014F0080F0CBF00208020E10748BF40F0CF
:101C50002000A20748BF40F04000630748BF40F49F
:101C6000807000F0FDFCA1067368E2D56A6995F802
:101C70007840002A41D02A6A696A8A4246D0696956
:101C80002340501C01312862696113702A6AEB6994
:101C90009A4201D3AB692B62EB68BB42C9D01A6888
:101CA0001846EA605760C3F82480FFF791FF346854
:101CB000A4B214F02F0FC1D1002383F3118819F0BF
:101CC000800F01D0220637D4630611D5202383F379
:101CD00011886A6CAB6C9A4253D04FF6BF736FF0A9
:101CE000400209EA0303F3600023326083F31188A2
:101CF00003B0BDE8F043FEF7EBBF0420019300F012
:101D0000AFFC2A6A696A019B8A42B8D169690029D5
:101D1000B5D04FF4806000F0A3FC8AE7202383F362
:101D200011884FF4007000F09BFC6FF48072002368
:101D3000326083F311886FE7202383F31188AB6C43
:101D40006A6C9A4224D0AA6B286C591C0132AA638F
:101D5000A96481421F7801D3EB6BAB642B6B154AEE
:101D6000934209D04FF0000E1968184629634A6063
:101D7000C3F824E0FFF72CFF7760002383F311887A
:101D8000A2E7AB6B002BA8D0102000F069FCA4E701
:101D9000AA6B002AD7D0082000F062FC4FF63F73F0
:101DA00009EA030343F04003F360E6E7FC0A00207E
:101DB000080B00202C0B0020000000000000000099
:101DC00038B52022034682F31188104A9469A06A2C
:101DD00004F128058542636206D00368A362FFF719
:101DE000F7FEA06AA842F8D194F8223043B994F8DB
:101DF00021309B0704D1226963691A61226953610A
:101E00000F20BDE83840FFF79BB900BF780B0020DA
:101E1000F0B50026124F134D134C144B144907F123
:101E2000700E9C4211D91A46043951F8040F42F839
:101E3000040B9442F9D8DA43144424F00304043424
:101E400023449D4203D943F8046B9D42FBD8774558
:101E500004D007F110013AC91037E2E7F0BD00BF26
:101E600068270008E80B0020E80B0020E80B0020A2
:101E700050290008000000000000000000000000E1
:101E8000FEE700BF000000000000000000000000AE
:101E9000704700BF000000000000000000000000CC
:101EA000704700BF000000000000000000000000BC
:101EB0004FF0040880B5C1464FF47A77104B114AB1
:101EC0009B69114E114D124C9A61C5F810903078F3
:101ED00007FB00F000F2E730A4FB0030C0F38F10E6
:101EE000FFF746FEC5F81480307807FB00F000F2DB
:101EF000E730A4FB0030C0F38F10FFF739FEE4E7B2
:101F0000780B0020E8270008F80A002000140140A0
:101F1000D34D62100000000000000000000000002F
:101F200000214FF0FF300E4B2DE980481E691861EB
:101F30001961DE68D860D9600A460C46D969094D36
:101F400041F08051D961D96983B041F00061D96114
:101F50002B68054843F48073044E05492B600BE061
:101F600000100240007000400828000808000240ED
:101F70007008002050F8146C346041F8324001328F
:101F8000072A00F11400F5D14FF0FF3E01214FF078
:101F900088336FF44078C94E4FF0100C3046C84D6E
:101FA000DFF88093C5F804E0D9F81870A5F57845F6
:101FB00047F07D07C9F81870C24FC5F80CE06F6094
:101FC000773FB4622F6007F1305707F52C1744377D
:101FD000C5F80CE4C5F80474BB4FC5F80034317281
:101FE000C5F80C88C5F80478C5F8003805F19145A6
:101FF000B64F05F5EF2505F55175C7F80CE07B6088
:102000003D60B34DB34FC5F80CE06B602B6040F8FA
:10201000047B706006F10C00AF4BB04DF060306196
:10202000DFF8048306F15400B0617062306206F19B
:102030006400F061C5F80C807461A8F5305829700F
:102040006C60F6621970C6F838C0D8F80470F06396
:1020500047EA0C07C8F80470D9F81C70B0640F4345
:10206000C9F81C7041F20A079F6241F218077064B8
:1020700006F1740030649A48DFF8B082F064994841
:10208000DF62706700F56840D8619748D8F804703F
:10209000186214304FF08042586245F6BF5047F442
:1020A00000675C609C605C613665C8F80470906293
:1020B0004FF6FF708D4F06F13008D0629461C6F87C
:1020C00030805463C6F8348003F10C08D4604FF0BC
:1020D000800AC3F80C80C3F8108054605161A7F8DF
:1020E00024E011604FF080524FF0200B804B81486C
:1020F0007B64DFF83C8207F154037B65DFF834E250
:102100007D4B7F60BC60FC8487F84D407C663C66FC
:1021100087F84E10FF633F64C7F834A0C7F868A083
:1021200088F81CA38460C8F88021C460C8F8002027
:10213000724AC3F800E0DFF800E2026000EB0C0234
:1021400002614261C3F804E007F11C026C4B846138
:10215000FA6107F158003A6207F12C023A617A619C
:102160003F60B865D3F80CE0F8652EF4E06E4FEAF6
:102170000E4E64484FEA1E4E4EEA0000DFF8BCE106
:10218000BA61D860DEF80C205F4842F08072CEF869
:102190000C200268BC640A4387F84C10026083F884
:1021A0001FC083F822B084F3118862B68BF31188C4
:1021B0004FF0020C554B564AC3F89810C3F8CC1098
:1021C00083F8B21003F16C01D7F814E0C3F89C1047
:1021D00050485149DA6603F19002C3F8A4E083F84D
:1021E000B0C0C3F8A8001C6783F8B140C3F8C8406A
:1021F000C3F8C440C3F8A070C3F8AC30C3F88C1067
:1022000003F1B80CCEF8102003F1BC0E1046C3F851
:10221000B8C0C3F8BCE0C3F8C0E001917A6100F037
:10222000EFF984F3118832223C4B1A708BF311883A
:10223000337A0199012B00F0B081D022736F4FF0F7
:10224000400E4FF0010C42F22C1000249A604FF027
:102250000208FF22C3F810E0C3F814C0D8601C6065
:1022600018685B6886F8782086F8088084F31188FF
:10227000202686F311888120294BD7F814E0DFF857
:10228000C0A0DFF8C09003F5807203F1DC0BC3F847
:10229000FC10C3F814E1C3F80801C3F83C0103F5CE
:1022A0009671C3F8E04083F8208183F82141C3F898
:1022B0003841C3F8344183F822C145E0FC0A0020CC
:1022C00000000240BB888888434B88880014014086
:1022D00000180140002900083C08002024080020C4
:1022E000C10C00080048004004280008780B0020BA
:1022F0007C280008D80A0020D00A002061100008BD
:1023000000ED00E00003FA05001000E0F8090020ED
:10231000211100089428000845020008F80A00204E
:10232000B008002000100240002C0140002004E012
:1023300000E100E0E80B002000200020F0ED00E0CC
:10234000B11E00089C280008C3F81071C3F81C31A6
:10235000C3F80CB1C3F8DCA0C3F81891CEF8102074
:1023600003F5947E1046C3F828E1C3F82C11C3F896
:1023700030117A6100F044F984F31188DFF864A227
:10238000DFF864928C4FDFF864B2DFF864828AE091
:1023900040F2012254219A613A789960002A40F073
:1023A000F38031221A6203F1380234332A616B61FF
:1023B00002232B7084F3118886F311880521EB68C2
:1023C0005A6942F001025A611C6119604FF003031F
:1023D0002B7084F3118886F31188EA68D36813F0B0
:1023E000FF0010D169681061087D002840F0A280CC
:1023F0008868002800F0CE8043F00603096909B11F
:1024000043F00103D36084F311884FF42F70FFF77A
:10241000AFFB40466949FFF7CBF886F311880221EC
:10242000EB681C60DA68297022F0FF02DA6084F33E
:10243000118886F311882B788B4216D14FF00070EB
:102440004FF00061EA685E4B1460D4601461C3F819
:10245000800083F81943C3F8801083F81B43DBF82E
:10246000183023F40063CBF8183001236C602B7014
:1024700084F3118853499AF8003099F800204046B7
:10248000FFF796F8504A9AF8001099F80030127841
:102490000B449A420CBF4D494D494046FFF788F81E
:1024A0006420FFF765FB4B4B06201C704A4B8AF8F3
:1024B00000401C70444B89F800401C7000F008F983
:1024C0004FF08073454A12201361FFF751FB4FF420
:1024D0008073424A0320136100F0FAF886F31188F2
:1024E0002B786F60012B2CD0EB68AA681C605C63B2
:1024F0009C635C6279684FF6FF70B2FBF1F2B969D8
:102500001C6121F0FF01D960397D013A9A62D862DD
:1025100000293FF43DAF4FF4817264219A613A780B
:102520009960A2BB13221A6203F1340238332A6184
:102530006B613DE7886800287FF45EAF43F00403D9
:102540005CE770204FF0007E4FF00061DBF8183040
:1025500043F40063CBF81830DBF80C20184B42F43E
:102560000062CBF80C201E4ACBF80C40AA6083F81E
:102570001903C3F880E1C3F800E083F81B03C3F834
:1025800080111960EB68B5E713221A620BE731225C
:102590001A62C9E743F0020330E7C022D9F81C30C1
:1025A00043F48023C9F81C3088F82723C8F884A195
:1025B000C8F804A041E600BF00080020A4280008D5
:1025C00000E100E0B028000820080020DC28000816
:1025D000EC280008A8080020F90A002000080140A3
:1025E00000366E01210800206C0800200010024017
:1025F000FC0A0020000000000000000000000000B5
:1026000070B40026144B46629D6981680446A86830
:1026100081420CD884F820601B689A689142FBD9EB
:102620005A682360626014605C6070BC70471A4630
:1026300085F82060126891688842FBD901265068AD
:102640002A6068600560556084F82060294620464D
:102650009C6170BCFDF7EEBD780B0020000000000F
:10266000F8B5174F57F8044FBC4221D00546002655
:1026700002E02468BC421BD0E3682B43E36015B141
:1026800022691342F5D06068A368416B90F820205E
:102690000B430A2A43630CD00B2AEAD1426A32EA7E
:1026A0000303E6D14662FFF793FA2468BC42E3D104
:1026B000F8BD426A1342DCD04662FFF789FAF4E7BC
:1026C000FC0A0020000000000000000000000000E4
:1026D000032870B424D0042827D0002208251146EE
:1026E00013464FF48074134E305C26044FEA0111F8
:1026F0004FEA02124FEA031354BF41F00F010243A5
:10270000013D43F00F034FEA4404EED10A4C6068E8
:1027100001400A43626022681340236070BC704726
:102720004FF48072044B1A61D7E74FF48072024B6A
:0C2730005A61D2E720290008000801408F
:10273C00286E756C6C2900000A0000006400000013
:10274C00E803000010270000A086010040420F00A3
:10275C008096980000E1F50500CA9A3B50290008C4
:10276C00E80B0020E80B0020E80B002050290008A3
:10277C0000000000000000000000000050290008CC
:10278C0000000000000000000000000050290008BC
:10279C0000000000000000000000000050290008AC
:1027AC00000000000000000000000000502900089C
:1027BC00000000000000000000000000502900088C
:1027CC00000000000000000000000000502900087C
:1027DC00000000000000000000000000626C696E48
:1027EC006B6572000000024008000240010000000E
:1027FC000000000000000B00000002401C00024022
:10280C00020000000000000004010C000000024067
:10281C0030000240040000000000000008020D001F
:10282C0000000240440002400800000000000000CC
:10283C000C030E0000000240580002401000000083
:10284C000000000010040F00000002406C00024069
:10285C0020000000000000001405100000000240E1
:10286C00800002404000000000000000180611002B
:10287C006D61696E00160220040244080C101418D5
:10288C001C2021220000000069646C65000000001F
:10289C006E6F6E616D6500001B5B324A1B5B313BDA
:1028AC003148000054656D70657261747572653ADB
:1028BC0020256420432C2048756D69646974792047
:1028CC00526174653A202564202525200A0D0000EC
:1028DC00436865636B73756D204F4B210A0D0000C7
:1028EC00436865636B73756D204641494C454421C3
:1028FC000A0D0000C113000821150008411400083E
:10290C00A11500083114000891150008B113000836
:10291C001115000804020408080003070808080839
:08292C00080808080B0F000069
:102934000000000040420F00210C000800000000CD
:0C29440000000000000000000000000087
:04000005080001618D
:00000001FF
