:020000040800F2
:100000000004002081010008E1070008E107000862
:10001000E1070008E1070008E1070008E107000820
:10002000E1070008E1070008E107000821050008D2
:10003000E1070008E1070008E1070008E107000800
:10004000E1070008E1070008E1070008E1070008F0
:10005000E1070008E1070008E1070008E1070008E0
:10006000E1070008E1070008E1070008E1070008D0
:10007000E1070008E1070008E1070008E1070008C0
:10008000E1070008E1070008E1070008E1070008B0
:10009000E1070008E1070008E1070008E1070008A0
:1000A000E107000801050008E10700081105000844
:1000B00051040008E1070008E1070008E107000813
:1000C000E1070008E1070008E1070008E107000870
:1000D000E1070008E1070008E1070008D105000872
:1000E000E1070008E1070008E1070008E107000850
:1000F000E1070008E1070008E1070008E107000840
:10010000E1070008E1070008E1070008E10700082F
:10011000E1070008E1070008E1070008E10700081F
:10012000E1070008E1070008E1070008E10700080F
:10013000E1070008E1070008E1070008E1070008FF
:10014000E1070008E1070008E1070008E1070008EF
:10015000E1070008E1070008E1070008E1070008DF
:10016000000000000000000000000000000000008F
:10017000000000000000000000000000000000007F
:1001800072B6254880F3098824484EF60851CEF20D
:1001900000010860022080F31488BFF36F8F01F024
:1001A0008FF901F0ADF81E481E491F4A91423CBF2D
:1001B00041F8040BFAE71D49174A91423CBF41F848
:1001C000040BFAE71A491B4A1B4B9A423EBF51F8EF
:1001D000040B42F8040BF8E700201849184A914232
:1001E0003CBF41F8040BFAE701F02AF901F060F98D
:1001F000144C154DAC4203DA54F8041B8847F9E758
:1002000000F03EFD114C124DAC4203DA54F8041BD1
:100210008847F9E701F044B9000800200000000811
:100220005555555500000020000400200004002012
:100230009015000800080020380800203808002029
:10024000440A0020800100088001000880010008A5
:10025000800100082DE9F04FC1F80CD0C3689D461D
:10026000BDE8F08F002383F311882846A0470020C3
:1002700001F096F801F0C4F800DFFEE7000000008E
:1002800030B4202383F3118840F63C23C2F20003EC
:100290001D684C1E2A4422444942044402EA0100DB
:1002A00021405A680144914207D88D4205D819600F
:1002B000002383F3118830BC70470020002383F3B0
:1002C000118830BC704700BFAFF30080AFF30080EF
:1002D0004FF49043C4F20003DA6842F08002DA601F
:1002E000704700BFAFF30080AFF30080AFF3008032
:1002F00010B4202383F3118890F82030072B0ED8F8
:10030000DFE803F02B0D0D2708040D08436A9A68F7
:1003100001329A6090E80C001A60026853604FF056
:10032000FF34002240F678038168446280F8202080
:10033000C2F200031B689A688A42FBD25A68002105
:10034000036042601060586081F311885DF8044BCF
:100350007047436A00221A60E1E7002383F31188A3
:100360005DF8044B704700BFAFF30080AFF300802F
:1003700038B540F63805C2F20005AB691A69DC6889
:100380001440E2B2D2431A61A30704D56B681B691B
:100390000BB128469847600707D56B689B6923B166
:1003A00040F63800C2F200009847210707D56B6875
:1003B0001B6A23B140F63800C2F200009847E206FB
:1003C00007D56B689B6A23B140F63800C2F2000083
:1003D0009847E30707D56B689B6823B140F6380060
:1003E000C2F20000984738BDAFF30080AFF3008041
:1003F000202383F311884FF46D43CEF200035B6832
:1004000013F4006302D183F311887047EFF309827C
:100410004FF0807342F8043CA2F1200383F3098873
:1004200040F67803C2F2000319689B6989689B68EB
:1004300099428BBF40F2752340F27823C0F6000347
:10044000C0F6000342F8083C704700BFAFF30080DD
:100450004FF080431A692DE9F041920703D4BDE8BB
:10046000F041FFF7C5BF00221A61202383F31188F2
:1004700040F678044FF08045C2F200046A6AE08CCE
:10048000E36992B2161A1989B6B28E4204F11C07BA
:1004900024BF4FF0000820261CD31A680144BA423A
:1004A000E184D9685760E261C3F80C8008BFC5F8E1
:1004B0000C8088F311881869884786F311886A6A66
:1004C000E08CE36992B2C0EB020C19891FFA8CFC34
:1004D0006145E2D9BB420AD00144891A89B2012997
:1004E00098BF02210A4492B24FF080435A6300231E
:1004F00083F31188BDE8F041FFF77ABFAFF30080C6
:1005000008B5FFF735FFBDE80840FFF771BF00BF32
:1005100008B5FFF72DFFBDE80840FFF769BF00BF32
:10052000EFF30983203383F30988002383F31188D1
:10053000704700BFAFF30080AFF30080AFF30080DF
:10054000002240F67803816810B4C2F2000304462A
:1005500080F820201B689A688A42FBD25A6820469D
:100560002360626014605C605DF8044B704700BFFC
:10057000F8B504680746A0420D4620D0002602E0E8
:100580002468A7421BD0E3682B43E36015B12269BE
:100590001342F5D06068A268416B90F820300A439E
:1005A0000A2B42630CD00B2BEAD1436A1A409342C8
:1005B000E6D14662FFF7C4FF2468A742E3D1F8BD45
:1005C000436A1A42DCD04662FFF7BAFFF4E700BF85
:1005D0002DE9F84F40F6C015C2F200056E6FD6F84F
:1005E0000C903368D8059CB200F19480202383F3EB
:1005F000118814F02F0F57D040F6C01BC2F2000B29
:100600000BF10C0C4FF0000809E0A406776895F890
:1006100078A01FD43468A4B214F02F0F44D021075F
:10062000F3D014F0080F14BF80210021E20748BF67
:1006300041F02001A30748BF41F04001670748BFD0
:1006400041F480716048FFF793FFA406776895F83E
:1006500078A0DFD5DBF81430002B49D02B6A6A6A0A
:1006600093424DD069695A1C0AEA070701312A6290
:1006700069611F702A6AEB699A4203D3DBF818306C
:10068000CBF82030EB686345C4D01A681846CBF825
:100690000C20C2F804C0C3F82480FFF751FF34686F
:1006A000A4B214F02F0FBAD1002383F3118819F0EC
:1006B000800F01D020063CD4610615D5202383F39A
:1006C00011886A6CAB6C40F6C0109A42C2F200000E
:1006D00063D04FF6BF7309EA03036FF04002F36083
:1006E0000023326083F31188BDE8F84FFFF780BE26
:1006F00035480421FFF73CFF2B6A6A6A9342B1D167
:10070000DBF81420002AADD02F484FF48061FFF7AA
:100710002FFF7FE7202383F311884FF40071281DFA
:10072000FFF726FF6FF480733360002383F3118893
:100730005CE7202383F31188AB6C6A6C40F6C01031
:100740009A42C2F2000030D0AA6B286C591C0132C8
:10075000AA63A96440F6C012814293F800C0C2F2B5
:10076000000201D3D36B936440F6C013C2F20003BE
:100770002A6B03F130018A4209D017684FF0000E4E
:100780001F6310467960C2F824E0FFF7D9FEC6F86F
:1007900004C0002383F311888EE7836B002B98D06D
:1007A00004301021FFF7E4FE93E7826B002ACBD0E0
:1007B00004300821FFF7DCFE4FF63F7309EA03031C
:1007C00043F04003F360E4E7C4090020AFF3008086
:1007D000FEE700BFAFF30080AFF30080AFF300800F
:1007E000FEE700BFAFF30080AFF30080AFF30080FF
:1007F00040F67803C2F2000330B41A6899691468AD
:10080000012581F82000636082F820501C601046AA
:1008100030BC9A61FFF71EBDAFF30080AFF30080DC
:10082000F0B54FF6FF73994287B0074660D040F6A7
:100830007804C2F2000425464FF0804055F81C3F72
:10084000D0F824C040F2F122A669C0F600020129C6
:1008500098BF0221AB4205961FFA8CFC049275D01A
:10086000B4F826E0CEEB0C068A1992B2B24219898E
:1008700039DB8A423EBF02EB0E06B6B246638A42BD
:1008800005D91B68521A198992B29142F9D3596855
:1008900001AE029101930E605E60ADF80C201889E4
:1008A0004FF6FF71821A1A81A1843846FFF7A0FF24
:1008B000049BA3B1E26940F67803B242C2F200039E
:1008C00020D0029A019B00211360019BAB425A6029
:1008D000049104D0BDF80C101A890A441A81A36946
:1008E000586A07B0F0BD1B68521A92B21989C6E760
:1008F000FFF77EFF40F67804C2F20004A369586A4D
:1009000007B0F0BD019A0021AA42DA6108BF4FF09A
:1009100080435560049108BFD960E0D04FF080411A
:10092000486ADD8CBDF80C60138980B2451B3344E6
:100930009BB2ADB2AB421381D1D95B1B9BB2012BF1
:1009400098BF022303449BB24B63C8E701EB0C0E34
:1009500001AE1FFA8EFE00220223A4F826C00195E4
:100960000295ADF80C10E6612662C0F834E0026131
:10097000C3609AE7AFF30080AFF30080AFF300806D
:1009800008B50146202383F311880820FFF748FFAC
:10099000002383F3118808BDAFF30080AFF300801C
:1009A00010B4024671B140F67803C2F20003446805
:1009B0009B69042083E81400236053605DF8044BB6
:1009C000FFF72EBF4FF0FF305DF8044B704700BFBC
:1009D00070B5202304460E4683F3118803E0FFF729
:1009E000DFFF00281BDBA56820463146002DF6D02E
:1009F000A2692169531CA0688B42A36100F1FF30FA
:100A000028BFE368A060157828BFA361E3690BB134
:100A100020469847002383F31188284670BD85F34C
:100A2000118870BDAFF30080AFF30080AFF300809A
:100A30000C30FFF7CDBF00BFAFF30080AFF30080F5
:100A40000C304FF6FF71FFF7C3BF00BFAFF300805C
:100A50002DE9F04F984683B0044689461546C7698C
:100A6000202383F311884FF080435A6A08F1FF3B3B
:100A7000424492B2002601921FFA8BFBA3680BB38B
:100A8000A369A1685A1C0139A261A1601B7809F110
:100A9000010A89F800302369A2699A4224BFE368F9
:100AA000A3610FB12046B847002383F31188013DAD
:100AB00006F101061AD0202282F31188A368D146DC
:100AC000002BDDD14FF6FD72934513D84FF08042D5
:100AD000516A019A511A89B2884505D32046FFF719
:100AE0005FFF0028CAD0002383F31188304603B08B
:100AF000BDE8F08F20464146FFF752FF0028BDD0E9
:100B0000F1E700BFAFF30080AFF30080AFF30080E8
:100B10000C30FFF79DBF00BFAFF30080AFF3008044
:100B20000C304FF6FF73FFF793BF00BFAFF30080A9
:100B3000F8B504460F461646202383F3118803E0D8
:100B4000FFF72EFF00281ADBA56820463146002D4E
:100B5000F6D06369A1685A1C01396261A1601F70F7
:100B6000236962699A4224BFE3686361E3690BB158
:100B700020469847002383F311880020F8BD85F3B1
:100B80001188F8BDAFF30080AFF30080AFF30080B1
:100B90003030FFF7CDBF00BFAFF30080AFF3008070
:100BA00030304FF6FF72FFF7C3BF00BFAFF30080D6
:100BB0002DE9F04F984683B0044689461546C7692B
:100BC000202383F311884FF080435A6A08F1FF3BDA
:100BD0004244002692B201921FFA8BFBB246A368F0
:100BE000FBB16369A1685A1C01396261A16099F87F
:100BF000002009F101091A70236962699A4224BF31
:100C0000E36863610FB12046B8478AF31188013D5C
:100C100006F1010619D0202383F31188A368002B65
:100C2000DFD14FF6FD72934513D84FF08042516AE1
:100C3000019A511A89B2884505D32046FFF7B0FEC4
:100C40000028CCD0002383F31188304603B0BDE8E0
:100C5000F08F20464146FFF7A3FE0028BFD0F1E702
:100C60003030FFF7A5BF00BFAFF30080AFF30080C7
:100C700030304FF6FF73FFF79BBF00BFAFF300802C
:100C80004FF480520023C4F202024FF0FF3011698A
:100C90002DE9804810611361D168D060D360D069BC
:100CA0004FF4E04140F08050D061D069C4F20001BF
:100CB00040F00060D061086883B040F48070086044
:100CC00094694FF4C051C4F201014FF4006748F237
:100CD000B84B44F6843A4FF4406648F688090191CF
:100CE000C4F201074FF0FF31C4F2010644F07D0465
:100CF000C8F6880BCBF2B34ACBF2B3494FF4805518
:100D000044F643384FF4A05048F6440C9461C4F2C2
:100D10000105F960C4F20100C7F804B0C8F68808FC
:100D2000C7F800A0C8F6880CF1604FF0883AC6F802
:100D300004906FF44079C6F800A040F63804C5F876
:100D40000C9040F6C017C5F80480C5F800A0C1603B
:100D5000C0F804A0C0F800C00198C2F20007C2F2B7
:100D600000044FF0100B04261D464FF4305EC160A6
:100D7000C4F20105C0F804A0C4F2010EC0F800A03E
:100D80006360E36026747B61C7F838B0D5F80480EF
:100D9000C4F818E040F2D12141F2685E4FF4904C63
:100DA0003E4607F17400C0F6000EC0F60001C4F222
:100DB000000C4FF0010946F804EB3864F964C7F8F9
:100DC00074C007F1640107F1540007F10C0E07F13C
:100DD000300C48EA0B0887F80890BB627E60C7F8C1
:100DE0000CE0C7F810E0B86178623862F961F96325
:100DF000B9647964C7F830C0C7F834C084F800908B
:100E0000FF623F65C5F80480D1694FF4005041EAA4
:100E10000901D161CEF20400476840F6780247F438
:100E2000006747604FF0804045F6BF5787624FF438
:100E300061464FF6FF77C2F20002CEF200064FF095
:100E4000800AC76240F65801836141F2D04843638B
:100E500040F2812CC3604360C0F81490C0F8009049
:100E60004FF0805086F81CA3C2F20001C6F8800142
:100E7000C0F600083060C0F6000C02F154004FF0DC
:100E8000FF369684C2F834A002F15806C2F868A072
:100E9000C2F8448001EB0B0A02F11C085065C1F84E
:100EA00000C002F12C004FF46D4CCEF2000C9360A8
:100EB000D38482F84D305366136682F84E9096655F
:100EC0008B60CB608B61C1F810A0C1F814A0C2F890
:100ED0001C80C2F82080106112605260D2631264DC
:100EE00040F63C25506140F6482E82F84C9042F284
:100EF0000007D665C2F20005DCF80C60C2F2000EF5
:100F0000C2F20007C5F800E06F604FF440714FF681
:100F1000FF053540C0F2FA5129434EF6F055906175
:100F20009364CEF20005CCF80C10E9684FF48052BF
:100F300041F08071E960CEF200021068202140EAA1
:100F4000090010608CF81FB08CF8221083F3118810
:100F500062B6202383F3118840F67802C2F20002C1
:100F600040F6E803C2F200030125D2F818C0C3F826
:100F7000985040F2D17EDCF80880D2F8149003F14A
:100F80006C0AC0F6000E40F2652741F28856002137
:100F900003F19000C3F89CA0C3F86CE0C0F6000712
:100FA00003F1BC0E4FF0020BC0F6000603F1B80AC5
:100FB000C3F8A490C3F8AC30C3F8A020C3F88C7079
:100FC00083F8B0B0C3F8A860C3F8CC5083F8B2502F
:100FD000196783F8B110C3F8C810C3F8C410C9F872
:100FE00010005061C3F8B410C3F8B8A0C3F8BCE057
:100FF000C3F8C0E0B8F1000F00F0288183F8B0100A
:10100000126891680029FBD15568C3F89020C3F895
:1010100094502860506081F31188202383F3118855
:1010200040F60001C2F2000123784F6840F6380014
:10103000012B6160A760C2F2000000F00A818269A2
:101040000023D0F814E0136053639363D3631364F5
:1010500053620B68CE68BEFBF3F3C86A5D1E06F0F0
:101060000F03013F012B9562D762506003D0022B22
:101070000CBF032300234D6905F00F00012803D0A6
:10108000022803D143F0200343F01003C86900F0A5
:101090000F07012F03D0022F03D143F4007343F451
:1010A00080734F6A07F00F07012F03D0022F03D17F
:1010B00043F4005343F4805306F0F006102E03D09F
:1010C000202E03D143F0080343F0040305F0F0059C
:1010D000102D03D0202D03D143F0800343F04003B3
:1010E00000F0F000102803D0202803D143F400635F
:1010F00043F480634F6B0E6B4FF0010E002127F01D
:10110000FF0746F40046852502201362C2F814E06A
:101110001161D76056641560E160207081F3118819
:10112000202383F3118840F63804C2F20004A36937
:10113000DA68D7075FBF42F00102DA601A6902F08D
:10114000010258BF1A61002383F311880820194651
:101150001D464FF4807216044FEA01114FEA031343
:101160004FEA051554BF41F00F0143F00B0301385E
:1011700045F00F054FEA4202EDD14FF40062C4F290
:10118000010256684FF4FA6031400B435360136814
:101190001D401560FFF7F4FBA36840F2EE2202FB4E
:1011A00003F241F25973CDF2B713A3FB02032022DD
:1011B000580B82F3118840F63803C2F20003D96855
:1011C0009A6941F00101D9605063002383F31188CB
:1011D000202383F3118840F63804C2F20004A36987
:1011E000DA6895075FBF42F002026FF00201DA6031
:1011F0001961002383F3118841F28830FFF7C0FBA7
:10120000202383F31188A36900225A63E168D86818
:1012100021F0010120F00200E160D86082F3118822
:10122000202383F3118840F63804C2F200042378A7
:10123000022B3FD000230122E3606360227083F31E
:1012400011884FF4FA70FFF79BFBFAE78CF82080C7
:10125000FEE74FF48052C4F2020295694FF46143F5
:1012600045F400659561D568CEF2000345F4006C45
:101270004FF0007670254FF0000EC2F80CC0C2F897
:101280000CE083F81953C3F880611E6083F81B5388
:1012900082694FF458554FF0006C46F66806C0F26C
:1012A0006E15C3F880C1AE46C3F800C096614561B3
:1012B000D661CEE6A1694FF461420023CEF200026E
:1012C0004FF000764FF000654FF480500B60C4F291
:1012D0000200CB600B614B64C2F8806082F8193366
:1012E000C2F8805082F81B33836923F40063836162
:1012F000A0E700BFAFF30080AFF30080AFF3008042
:101300004FF48053C4F202031A68194642F00102F6
:101310001A600A684FF480539207C4F20203F8D5AA
:101320001968002201F0F901196019465A604A68EB
:101330004FF4805312F00C0FC4F20203F7D11A6875
:10134000194642F480321A600A684FF480539003C1
:10135000C4F20203F8D55A68194642F480325A6042
:101360001A6842F080721A600A684FF48053920142
:10137000C4F20203F8D54FF40052C4F20202102165
:101380004FF480305860116059681A4641F00201EC
:101390005960536803F00C03082BFAD1704700BF63
:1013A00038B50246202383F3118840F67803C2F251
:1013B00000039C69A06A04F12805A842626206D075
:1013C0000368A362FFF7BCF8A06AA842F8D194F8BA
:1013D00022304BB994F82130990701BF2269636923
:1013E0001A61226908BF53610F20BDE83840FFF73A
:1013F000FFB900BFAFF30080AFF30080AFF3008010
:1014000040F67802C2F20002106870B40368956971
:1014100001260021AC6813605A6080F8206090615A
:1014200085F8201000E01B689A68A242FBD85A6831
:1014300029462B606A6015605D6070BCFEF70ABFCC
:10144000F0B4134E002506F17007A6F110011AC979
:10145000A3420DD204391A4651F8040F42F8040B86
:10146000A242F9D3DA43144424F00304043423449D
:1014700056F8042C934203D243F8045B9342FBD307
:10148000BE4206F1100301D21E46DEE7F0BC7047F3
:10149000F8140008AFF30080AFF30080AFF30080D2
:1014A000FEE700BFAFF30080AFF30080AFF3008032
:1014B000704700BFAFF30080AFF30080AFF3008050
:1014C000704700BFAFF30080AFF30080AFF3008040
:1014D0006D61696E00160220040244080C10141895
:1014E0001C20212200000000C8150008440A00202A
:1014F000440A0020440A0020C8150008000000002B
:101500000000000000000000C815000800000000F6
:101510000000000000000000C815000800000000E6
:101520000000000000000000C815000800000000D6
:101530000000000000000000C815000800000000C6
:101540000000000000000000C815000800000000B6
:101550000000000000000000C815000800000000A6
:101560000000000000000000710C0008210B0008C2
:10157000A10B0008410A0008910B0008310A00087D
:10158000610C0008110B000869646C650000000024
:1015900010270000C800000000000000010000004B
:1015A000000000000100000000000000000000003A
:1015B000000000000000000000000000000000002B
:0815C000000000000000000023
:04000005080001816D
:00000001FF
