:020000040800F2
:10000000000400206101000861090008610900087E
:100010006109000861090008610900086109000818
:10002000610900086109000861090008C1080008A9
:1000300061090008610900086109000861090008F8
:1000400061090008610900086109000861090008E8
:1000500061090008610900086109000861090008D8
:1000600061090008610900086109000881080008A9
:100070004108000801080008C107000881070008BE
:10008000410700080107000861090008610900082C
:100090006109000861090008610900086109000898
:1000A0006109000861090008610900086109000888
:1000B000610600086109000861090008610900087B
:1000C0006109000861090008610900086109000868
:1000D00061090008610900084106000821060008BE
:1000E0006109000861090008610900086109000848
:1000F0006109000861090008610900086109000838
:100100006109000861090008610900086109000827
:100110006109000861090008610900086109000817
:100120006109000861090008610900086109000807
:1001300061090008610900086109000861090008F7
:1001400061090008610900086109000861090008E7
:1001500061090008610900086109000861090008D7
:1001600072B6264880F3098825484EF60851CEF22B
:1001700000010860022080F31488BFF36F8F01F044
:10018000AFF800F0CDFF4FF055301E491E4A9142A6
:100190003CBF41F8040BFAE71C49184A91423CBFA6
:1001A00041F8040BFAE71A491A4A1B4B9A423EBF20
:1001B00051F8040B42F8040BF8E700201749184ADD
:1001C00091423CBF41F8040BFAE701F041F801F01D
:1001D0007FF8144C144DAC4203DA54F8041B8847E2
:1001E000F9E700F0BDFC114C114DAC4203DA54F8B4
:1001F000041B8847F9E701F063B8000000080020FD
:10020000000000080000002000040020000400207E
:10021000401400080008002040080020400800208A
:10022000A00B0020600100086001000860010008C8
:10023000600100082DE9F04FC1F80CD0C3689D465D
:10024000BDE8F08F002383F311882846A0470020E3
:1002500000F0A6FF00F0DCFF00DFFEE7000000007A
:100260000123F0B5224F467C3D6803FA06F42C4288
:100270003BD1204B03EBC60E43F836106B06CEF88D
:10028000042004D11C4A536943F0010353610E2238
:100290004FF0000E43681E6826F00F061E6090F8AF
:1002A00010C0066802FA0CF272608268C3F800E0BF
:1002B000154216D1A9B10121C026827C53099B00A9
:1002C00002F1604003F1604302F01F0203F5614355
:1002D00001FA02F200F5614080F80063C3F8802162
:1002E0001A602C433C600020F0BD1846F0BD00BFF2
:1002F000980B0020A8080020001002400000000019
:100300000329F0B42BD0042904BF164B58610023F5
:1003100008261A461D461C46134F795C07064FEA0D
:1003200004144FEA02124FEA05154FEA031354BFB3
:1003300044F00F040A43070454BF45F00F050B4374
:10034000013E4FEA4000E9D1064841680D402B4389
:10035000436003681C4022430260F0BC7047014BBD
:100360001861D4E70008014078130008000000007D
:1003700070B4202383F311880D4C4D1E2668431959
:10038000B018494228440B40084062680344934235
:1003900007D89E4205D82360002383F3118870BCE0
:1003A00070470020002383F3118870BC704700BFA2
:1003B000700B0020000000000000000000000000A2
:1003C00040F20F132DE9F04184680546E76826687E
:1003D00062681E421DD06FF48072436822601A6901
:1003E000BAB1B3B213F0080F0CBF00211021D80727
:1003F00048BF41F00401980748BF41F00801580781
:1004000048BF41F02001D80548BF41F040012846CF
:10041000904772060DD57B060BD56FF040026B68D6
:1004200017405B682260E7601BB12846BDE8F041D9
:100430001847BDE8F08100BF000000000000000088
:10044000F8B50B0715D40E23022742694668556894
:100450000446296821F00F012960117C12688B4045
:100460005360477033684BB198476378022B05D0CF
:10047000F8BD72B6034B044A9A62FEE7002363702C
:10048000F8BD00BF280A0020341400080000000056
:100490000B070DD42DE9F041837804466BB943680E
:1004A000DB68002B31D0BDE8F041018B89B21847E1
:1004B00072B6174B174A9A62FEE70E2102270569AA
:1004C00042686B681E6826F00F061E602E7C2D6841
:1004D000B14069608770916831B18847A378BB42A9
:1004E00013D1236962685B680021A170D268012181
:1004F000002A14BF22222022E06818340243DC6064
:1005000059601A601A680A431A60BDE8F08100BF9A
:10051000280A002034140008000000000000000039
:100520000E21F0B50024076945697A68836816686A
:100530004FF0000E26F00F0616603E7C3F6801FA71
:1005400006F67E606F6818303E6826F00F063E6043
:100550002F7C2E68B940716050F8141CDC601C615F
:100560005C614D69154C0127B4FBF5F49C60CC68C7
:100570004D8B744514BF222620260C8B898B50F896
:100580000CCC44F4045445F0400544F00C0441F014
:10059000C10146EA0C06ADB2A4B289B2D3F800C0DC
:1005A000D3F804C0C3F800E01D615961DC60D0607D
:1005B0005760166013683B431360F0BD00366E0150
:1005C000202383F31188114B5B6813F4006302D17D
:1005D00083F31188704780B400AFEFF309834FF0C5
:1005E0008071A3F1200243F8041C82F30988084AB1
:1005F000116892698968926891428CBF054A064ADF
:1006000043F8082CBD4680BC704700BF00ED00E0F9
:10061000280A0020550200085802000800000000C7
:1006200008B50348FFF7CCFEBDE80840FFF7C8BF98
:100630008C08002000000000000000000000000006
:1006400008B50348FFF7BCFEBDE80840FFF7B8BF98
:100650007008002000000000000000000000000002
:100660002DE9F0414FF0804423699B0703D4BDE896
:10067000F041FFF7A5BF00272025276185F31188EA
:100680001E4E606AB6F826E0F36980B2A0EB0E0158
:100690001A8989B2914206F11C081BD31968724469
:1006A0004145F284DA68C1F80480F161DF6008BF77
:1006B000E76087F311881869904785F31188606AAD
:1006C000B6F826E0F36980B2A0EB0E011A8989B270
:1006D0008A42E3D943450AD07244121A92B2022ADE
:1006E0002CBF8218821C4FF0804392B25A630023C1
:1006F00083F31188BDE8F041FFF762BF280A0020AC
:100700000B4B0C4A19681268090E01F00E011142D8
:100710000BD0094810B5046B0A065A600CB1406B47
:10072000A047BDE81040FFF74BBFFFF749BF00BF30
:100730000000024080000240A808002000000000E5
:100740000B4B0C4A19681268090D01F00E01114299
:100750000BD0094810B5846A0A055A600CB1C06A0A
:10076000A047BDE81040FFF72BBFFFF729BF00BF30
:10077000000002406C000240A808002000000000B9
:100780000B4B0C4A19681268090C01F00E0111425A
:100790000BD0094810B5046A0A045A600CB1406ACB
:1007A000A047BDE81040FFF70BBFFFF709BF00BF30
:1007B0000000024058000240A8080020000000008D
:1007C0000B4B0C4A19681268090B01F00E0111421B
:1007D0000BD0094810B584690A035A600CB1C0698E
:1007E000A047BDE81040FFF7EBBEFFF7E9BE00BF32
:1007F0000000024044000240A80800200000000061
:100800000B4B0C4A19681268090A01F00E011142DB
:100810000BD0094810B504690A025A600CB140694E
:10082000A047BDE81040FFF7CBBEFFF7C9BE00BF31
:100830000000024030000240A80800200000000034
:100840000B4B0C4A19681268090901F00E0111429C
:100850000BD0094810B584680A015A600CB1C06811
:10086000A047BDE81040FFF7ABBEFFF7A9BE00BF31
:10087000000002401C000240A80800200000000008
:1008800008B5094B094A1968126801F00E011142B6
:1008900005D0074A596013680BB150689847BDE806
:1008A0000840FFF78DBE00BF000002400800024074
:1008B000A808002000000000000000000000000068
:1008C00080B400AFEFF30983203383F3098800235A
:1008D00083F31188BD4680BC704700BF0000000054
:1008E000202383F3118890F82030072B0ED8DFE8FF
:1008F00003F0280D0D2408040D08426A93680133A3
:10090000936090E80C001A600268536010B40022F3
:100910004FF0FF3481680D4B446280F820201B6843
:100920009A688A42FBD25A680021036042601060D4
:10093000586081F3118810BC70470022436A1A6026
:10094000E4E7002383F31188704700BF280A0020E2
:10095000FEE700BF000000000000000000000000F3
:10096000FEE700BF000000000000000000000000E3
:1009700070B40026144B46629D6981680446A868DD
:1009800081420CD884F820601B689A689142FBD998
:100990005A682360626014605C6070BC70471A46DD
:1009A00085F82060126891688842FBD9012650685A
:1009B0002A6068600560556084F8206029462046FA
:1009C0009C6170BCFFF736BC280A002000000000C4
:1009D00030B40125074B99691A6881F82000146822
:1009E0001046636082F820501C6030BC9A61FFF7AB
:1009F00021BC00BF280A0020000000000000000009
:100A0000F0B5202387B083F31188454C4FF0804721
:100A1000254655F81C1F7A6A424BA069A9420493E7
:100A2000059093B264D0E08C92B21B1A03F5FA736E
:100A3000121A9BB293420A8932DB934235D3934216
:100A400005D909689B1A0A899BB29A42F9D34FF6D5
:100A5000FF704A6801AE0292019116604E60ADF8D7
:100A60000C300A89D31A0B81A0840820FFF7B0FF4D
:100A7000049B83B1E369B3421BD00021029A019B1E
:100A80001360019BAB425A60049104D01A89BDF8EF
:100A90000C100A441A81002383F3118807B0F0BDBB
:100AA00009689B1A9BB20A89C9E7184480B2786327
:100AB000C5E70023019EAE42E661756004932AD02B
:100AC0004FF08040426AE18C3389BDF80C4092B20D
:100AD000511A23449BB289B28B423381DBD95B1A12
:100AE0009BB2022B2CBFD318931C9BB24363D2E75B
:100AF0004FF4FA7E0020022103EB0E0201AE92B207
:100B000001950295E384ADF80CE0E6617A63266214
:100B10003861F960A9E74FF08042D360BBE700BFBE
:100B2000280A0020E1080008000000000000000082
:100B300004252E4608B5064B064A9B69064C9A6169
:100B40002661FFF75DFF6561FFF75AFFF8E700BF19
:100B5000280A0020E41200080014014000000000F0
:100B600000214FF0FF302DE988480E4B0E4D1C69D7
:100B700018611961DC68D860D960D8690B4F40F002
:100B80008050D861D8690A4640F00060D8612B686F
:100B90000E4643F480732B60054C0648064B3960C3
:100BA0000EE000BF0010024000700040980B0020D3
:100BB0000413000808000240A808002054F8140C90
:100BC000066043F832600132072A04F11404F5D1BB
:100BD0004FF0FF304FF088346FF4407E41F20A0C42
:100BE00041F2180801234FF0100AD54DDFF8B093F9
:100BF0006860D9F818704FF0080B47F07D07C9F806
:100C00001870D04AD04DD14FD0604FF08041556020
:100C1000176045F6BF5207F13057CD4D07F52C1739
:100C20004437E8606F60CB4F2C60C5F80CE4C5F822
:100C30000474C5F8004405F19145C74F05F5EE254C
:100C400005F24475F860DFF85CE37C603D60C34DFD
:100C5000CEF8046007F5E057E860CEF808606C60F5
:100C6000CEF814602C60BE4DBE4CCEF828C0CEF835
:100C70001C700EF10C0CBC4FCEF82C80CEF80CC0C2
:100C800005F11408CEF810C0DFF81CC3CEF82050D0
:100C9000CEF824808EF8003023706670A6706660EF
:100CA0003B707E70BE70DCF804E0C7F810804EEA3E
:100CB0000A0ECCF804E0D9F81CE0ACF53C4C4EEA46
:100CC000030E7E60C9F81CE07D61C4F808C005F120
:100CD000500C64356561DFF8D4E2A44DC4F80CB063
:100CE000BD60DEF80450C4F810C045F40065C7F8D4
:100CF0000CB0CEF804508A624FF6FF729C4DDFF8BC
:100D0000B0826D60CA626FF07F028E61AE604E632A
:100D1000CE604E604B610B6088F81C234FF0805210
:100D20009449C8F88021C8F80020934A05F11C0BAB
:100D30002D60C5F81CB011608022A8848F489049AE
:100D4000D0F80CC0DFF86CE22CF4E06CC1F800E0E5
:100D50004FEA0C4CDFF860E24FEA1C4C4CEA0E0EF6
:100D6000DFF858C2C5F820B0C0F80CE0DCF80CE0A1
:100D7000EE844EF0807ECCF80CE06A63AA66DFF861
:100D800040C27D4A05F1540EC2F804C04FF0200263
:100D900001EB0A0CC5F854E0DFF828B2DFF828E2CE
:100DA0008E60CE608E61C1F810C0C1F814C085F8A5
:100DB0004D6005F12C0105F1580C2E6685F84E307A
:100DC00085F84C306E66ED632D64AE64C5F844B0B2
:100DD00029616961A961C5F858C0C5F85CC0DEF831
:100DE00000101943CEF8001080F81FA080F82220D0
:100DF00086F3118862B6202282F311884FF0020C2C
:100E000060496A69C1F89830C1F8CC3081F8B230D5
:100E1000DFF8B8E101F16C035B48DFF8B4B1C1F869
:100E20009C3001F19003C1F86CE0C1F8A800C1F852
:100E3000A4200E6781F8B160C1F8C860C1F8C46031
:100E4000C1F8A050C1F8AC1081F8B0C0C1F88CB0A6
:100E50001846136101F1B80E6B6101F1BC03C1F8D2
:100E6000B8E0C1F8BC30C1F8C030FFF781FD86F3AF
:100E7000118820205146FFF743FA51464020FFF7E2
:100E80003FFA51468020FFF73BFA50460621FFF714
:100E900037FA2C4BC3F810A0202383F31188237852
:100EA0003A4A012B626000F0018100262D48A670AD
:100EB0006670FFF735FB0223237086F31188202329
:100EC00083F311883B78324A012B7A6000F0C180AD
:100ED0004FF00008244887F8028087F80180FFF768
:100EE0001FFB0221397088F311880122294E4FF02F
:100EF0002009327089F311888120274BDFF8D4E074
:100F000083F8201183F82221696903F1DC02234F61
:100F1000C3F80C2103F58072C3F81871C3F81411DB
:100F2000C3F80801C3F83C01C3F8FCB0C3F8E08083
:100F300083F82181C3F83881C3F834814CE000BFC5
:100F40000000024000080140BB88888844888888E7
:100F5000000C0140434B88880014014000180140F8
:100F600000130008700800208C0800200048004092
:100F7000280A0020A00B0020700B002000ED00E0EC
:100F8000780B0020980A0020A41300080008002015
:100F9000200800209C0B0020E0080020AC13000873
:100FA000001002404008002000000140002004E042
:100FB00000E100E0710300080003FA05F0ED00E035
:100FC000002000208C130008001000E051090008E8
:100FD00045020008310B0008C3F81051C3F81C315A
:100FE000C3F8DCE003F594770A6103F596711046C7
:100FF000C3F82871C3F82C11C3F830116A61FFF7E8
:10100000B7FC88F3118808276FF0400896F800E0D5
:1010100089F3118863696168E2685B68496842F036
:101020009202C3F80CE001205F6000251A6031B124
:10103000A268C2F80080D16841F04001D1601A680E
:1010400042F001021A60607085F31188FFF7D8FC46
:10105000DCE7C0262C4A2D493869FFF701F92A4AF6
:101060002B497869FFF7FCF880212A482A4AC3698E
:1010700043F48023C3617B6882F827631B8BC2F82B
:10108000841103F4A053B3F5805F516003D1FB6872
:1010900043F4A063FB60002238697969BB6840684B
:1010A0004968043383608B603A8311E7224617490D
:1010B0002069FFF7D5F8224615496069FFF7D0F897
:1010C000C0204021D9F81C30626843F40033C9F8CD
:1010D0001C3088F82603138BC8F8841103F4A0533E
:1010E000B3F5805FC8F8041003D1E36843F4A0634C
:1010F000E360002220696169A3684068496804339D
:1011000083608B602283D0E68C0800209104000865
:10111000410400080010024000E100E0000000006F
:101120001C4B1A46196841F00101196013689807B1
:10113000FCD500201368174903F0F90313605060D1
:101140004B6813F00C0FFBD10B68124A43F4803349
:101150000B6013689903FCD553680E4943F4803340
:101160005360136843F0807313600B689B01FCD5D8
:1011700010224FF48030084B48601A604B68054AD3
:1011800043F002034B60536803F00C03082BFAD1C1
:10119000704700BF00100240002002400000000025
:1011A00070B4202383F31188154B9D69AC6A05F157
:1011B0002806A642686218BF002011D02268104B92
:1011C000A168AA6284F820001B689A688A42FBD250
:1011D0005A682360626014605C60AC6AB442EDD10E
:1011E00095F8223043B995F821309B0704D12A693C
:1011F0006B691A612A6953610F2070BCFFF7E8BB65
:10120000280A00200000000000000000000000008C
:10121000012130B400250D4A1068946903685A60B2
:1012200080F82010A1681360906184F8205000E0DD
:101230001B689A689142FBD35A682146236062601A
:1012400014605C6030BCFEF7F5BF00BF280A0020C8
:10125000F0B50026124F134D134C144B144907F1EF
:10126000700E9C4211D91A46043951F8040F42F805
:10127000040B9442F9D8DA43144424F003040434F0
:1012800023449D4203D943F8046B9D42FBD8774524
:1012900004D007F110013AC91037E2E7F0BD00BFF2
:1012A000B4130008A00B0020A00B0020A00B00200E
:1012B0008014000800000000000000000000000092
:1012C000FEE700BF0000000000000000000000007A
:1012D000704700BF00000000000000000000000098
:0412E000704700BF94
:1012E400626C696E6B657200000002400800024087
:1012F400010000000000000000000B00000002409C
:101304001C000240020000000000000004010C0068
:101314000000024030000240040000000000000011
:1013240008020D00000002404400024008000000D2
:10133400000000000C030E000000024058000240B0
:10134400100000000000000010040F000000024024
:101354006C00024020000000000000001405100092
:101364000000024080000240400000000000000035
:1013740018061100040204080800030708080808F6
:10138400080808080B0F00006D61696E0016022042
:10139400040244080C1014181C2021220000000030
:1013A40069646C65000000006E6F6E616D6500001D
:1013B40080140008A00B0020A00B0020A00B00202C
:1013C400801400080000000000000000000000007D
:1013D400801400080000000000000000000000006D
:1013E400801400080000000000000000000000005D
:1013F400801400080000000000000000000000004D
:10140400801400080000000000000000000000003C
:10141400801400080000000000000000000000002C
:10142400801400080000000000000000000000001C
:0C143400444D41206661696C75726500D2
:10144000000000000000000000000000000000009C
:1014500000000000009600000000004000000000B6
:10146000000000000000000000000000000000007C
:101470000000000000C20100000000400000000069
:04000005080001618D
:00000001FF
